:020000040800F2
:100000002804002005010008A90300082D030008AA
:10001000A503000879010008270D00080000000072
:100020000000000000000000000000006909000856
:100030007D0100080000000061060008550A000864
:100040001F0100081F0100081F0100081F01000810
:100050001F0100081F0100081F0100081F01000800
:100060001F0100081F0100081F0100081F010008F0
:100070001F0100081F0100081F0100081F010008E0
:100080001F0100081F0100081F0100081F010008D0
:100090001F0100081F0100081F0100081F010008C0
:1000A0001F0100081F0100081F0100081F010008B0
:1000B0001F0100081F0100081F0100081F010008A0
:1000C0001F0100081F0100081F0100081F01000890
:1000D0001F010008B90A00081F0100081F010008DD
:1000E0001F0100081F0100081F010008DFF810D0E1
:1000F00000F030F800480047490F0008AFF30080D7
:10010000280400200648804706480047FEE7FEE72F
:10011000FEE7FEE7FEE7FEE7FEE7FEE7FEE7FEE7B7
:10012000590A0008ED00000830B50B4601460020D2
:100130002022012409E021FA02F59D4205D303FAA9
:1001400002F5491B04FA02F52844151EA2F101022A
:10015000F1DC30BD064C074D06E0E06840F00103DD
:1001600094E8070098471034AC42F6D3FFF7C2FF7B
:1001700088100008A810000800BFFEE770472DE9AE
:10018000F04102460025002600200023002400271D
:1001900091F803C00CF00F0591F803C00CF0100C9F
:1001A000BCF1000F03D091F802C04CEA050591F8AC
:1001B00000C0BCF1000F31D0146800202BE04FF0DC
:1001C000010C0CFA00F3B1F800C00CEA03069E42E1
:1001D00020D183004FF00F0C0CFA03F7BC4305FA53
:1001E00003FC4CEA040491F803C0BCF1280F06D1CB
:1001F0004FF0010C0CFA00FCC2F814C00AE091F8B0
:1002000003C0BCF1480F05D14FF0010C0CFA00FC03
:10021000C2F810C0401C0828D1D31460B1F800C047
:10022000BCF1FF0F34DD546800202EE000F1080C13
:100230004FF0010808FA0CF3B1F800C00CEA03060D
:100240009E4221D183004FF00F0C0CFA03F7BC4300
:1002500005FA03FC4CEA040491F803C0BCF1280F32
:1002600005D100F1080C08FA0CF8C2F8148091F8D6
:1002700003C0BCF1480F07D100F1080C4FF0010892
:1002800008FA0CF8C2F81080401C0828CED354603D
:10029000BDE8F081F0B50A460023002400210025C6
:1002A00000F00046B6F1004F02D11D4EF16901E0A9
:1002B0001B4E7168C0F3034583B200F44016B6F5D7
:1002C000401F08D121F07061154E766826F07066E7
:1002D000134F7E6012E000F48016B6F5801F06D141
:1002E000032606FA05F4A14341F0706106E0460DCD
:1002F000360103FA06F6B14341F0706122B1460DB2
:10030000360103FA06F6314300F00046B6F1004F1D
:1003100002D1034EF16101E0014E7160F0BD0000B9
:1003200000000140416170470161704700BFFEE776
:1003300008B50121082000F095F90121102000F0F6
:1003400091F90121084600F08DF901211148FFF7CC
:10035000A1FF01211048FFF79DFF0820ADF8000024
:1003600010208DF8030003208DF8020069460B4829
:10037000FFF705FF4FF40050ADF8000010208DF896
:10038000030003208DF8020069460548FFF7F7FED9
:1003900008BD00000004300000023000000C0140E5
:1003A0000010014000BFFEE7704700001CB50522A9
:1003B0001049302000F0C6F805226946102000F0F0
:1003C000A1F8002408E01DF804000A49095D8842EC
:1003D00000D003E0601CC4B2052CF4DB00BF052C88
:1003E00003D105A000F0C6FC02E00EA000F0C2FCA4
:1003F0001CBD0000140000200D0A204E524632346D
:100400004C30312009496E697469616C697361749B
:10041000696F6E205375636365737366756C202E08
:100420002E2E00000D0A205741524E494E473A20C9
:1004300020094E524632344C303120496E6974697D
:10044000616C69736174696F6E204661696C656483
:100450002021000070B505460C4604211F48FFF717
:1004600061FFFF21E12000F08DF8FF21E22000F084
:1004700089F805221A49302000F064F8052219494C
:100480002A2000F05FF80121212000F07BF80121F3
:10049000222000F077F81A21242000F073F8294672
:1004A000252000F06FF82021312000F06BF80F219B
:1004B000262000F067F8012C04D10E21202000F046
:1004C00061F805E0022C03D10F21202000F05AF83A
:1004D00004210248FFF728FF70BD0000000C014016
:1004E00014000020190000201CB504A103C9CDE9A7
:1004F0000001684600F092FD1CBD0000FE64FBF7A1
:10050000EFDFBF7F2DE9F04107460D46164610216B
:100510000B48FFF707FF384600F0DEF9804600245D
:1005200005E0002000F0D8F92855601CC4B2B442A0
:10053000F7DB10210248FFF7F7FE4046BDE8F081E7
:10054000000801402DE9F04107460D4616461021EE
:100550000B48FFF7E7FE384600F0BEF9804600245E
:1005600004E0285D00F0B8F9601CC4B2B442F8DBC6
:1005700010210348FFF7D8FE4046BDE8F081000097
:100580000008014070B505460C4610210748FFF7EA
:10059000C9FE284600F0A0F90646204600F09CF966
:1005A00010210248FFF7C0FE304670BD0008014030
:1005B00008B54FF4A06000F049F825208DF8000040
:1005C00001208DF8010000208DF8020001208DF837
:1005D0000300684600F002F808BD000070B5002175
:1005E00000230F22C47804B3154C246804F4E0649B
:1005F000C4F5E064210AC1F10403CA40447804FA56
:1006000003F184781440214309010E4C0678A1556A
:10061000047804F01F050124AC4005786D11AD008D
:1006200005F1E025C5F8004109E0047804F01F0554
:100630000124AC40044D0678761145F8264070BD83
:100640000CED00E000E400E080E100E0024901433D
:10065000024A1160704700000000FA050CED00E04E
:100660007047000029B1064A92690243044B9A611F
:1006700004E0034A92698243014B9A61704700008B
:100680000010024030B500210022002400232D4D2F
:100690006D6805F00C0121B1042905D0082923D18A
:1006A00005E0294D056022E0284D05601FE0254D3D
:1006B0006D6805F47012234D6D6805F480340225D1
:1006C00005EB92421CB9224D554305600BE01D4DD0
:1006D0006D6805F400351DB11B4D5543056002E002
:1006E0001A4D5543056002E0174D056000BF00BF7D
:1006F000144D6D6805F0F0010909164D6B5C056835
:10070000DD4045600F4D6D6805F4E061090A114D4B
:100710006B5C4568DD4085600A4D6D6805F460518D
:10072000C90A0C4D6B5C4568DD40C560054D6D68C0
:1007300005F44041890B084D6B5CC568B5FBF3F5CA
:10074000056130BD0010024000127A000024F40060
:1007500000093D00000000201000002021B10288A7
:1007600042F04002028004E002884FF6BF731A4054
:10077000028070470246002013890B400BB1012014
:1007800000E00020704701468889704781817047EA
:1007900010B50022028802F441520B884C88234392
:1007A0008C882343CC8823430C8923434C892343DF
:1007B0008C892343CC8923431A430280838B4FF2D5
:1007C000FF74234083830B8A038210BD00B587B07A
:1007D00001210420FFF746FF01210820FFF742FF17
:1007E00001210803FFF73EFFE020ADF804000120DF
:1007F0008DF8060018208DF8070001A92A48FFF798
:10080000BEFC0420ADF8040001208DF80600102085
:100810008DF8070001A92548FFF7B1FC1020ADF8BD
:10082000040001208DF8060010208DF8070001A9B2
:100830001D48FFF7A4FC0120ADF8040003208DF84B
:10084000060048208DF8070001A91848FFF797FC1B
:1008500010211548FFF768FD0020ADF808004FF49F
:100860008270ADF80A000020ADF80C00ADF80E0063
:10087000ADF810004FF40070ADF812001020ADF884
:1008800014000020ADF816000720ADF8180002A9EA
:100890000748FFF77DFF01210548FFF75FFF05A02F
:1008A00000F068FA07B000BD00080140000C0140EC
:1008B000003001400D0A2053504909496E6974699E
:1008C000616C69736174696F6E2066696E697368C3
:1008D0006564202E2E2E000070B504464FF480551E
:1008E00007E0281EA5F1010503D100F023F8C0B2EE
:1008F00070BD02210E48FFF73DFF0028F1D02146D0
:100900000B48FFF743FF08E0281EA5F1010504D1BD
:10091000012000F00FF8C0B2EAE701210448FFF718
:1009200029FF0028F0D00248FFF72DFFC0B2DFE713
:100930000030014010B50446214602A000F01AFA2A
:10094000002010BD5350492077616974206F76658F
:100950007274696D65216572726F72436F64652090
:100960003D20256400000000704710B500F002F83B
:1009700010BD00000CB500200190009033480068C5
:1009800040F480303149086000BF3048006800F40E
:10099000003000900198401C0190009818B901980F
:1009A000B0F5A06FF1D12948006800F4003010B113
:1009B0000120009001E0002000900098012843D120
:1009C0002348006840F0100021490860084600688C
:1009D00020F0030008600846006840F0020008604C
:1009E0001A48406819494860084640684860084607
:1009F000406840F4806048600846406820F47C10FD
:100A000048600846406840F4F810486008460068AE
:100A100040F08070086000BF0C48006800F0007073
:100A20000028F9D00948406820F0030007494860D1
:100A30000846406840F00200486000BF0348406834
:100A400000F00C000828F9D10CBD00000010024095
:100A5000002002407047000010B51348006840F0C5
:100A600001001149086008464068104908400E49D5
:100A70004860084600680E4908400B49086008466F
:100A8000006820F4802008600846406820F4FE00DA
:100A900048604FF41F008860FFF767FF4FF0006069
:100AA0000449086010BD0000001002400000FFF87B
:100AB000FFFFF6FE08ED00E010B540F225510648B4
:100AC00000F06DF838B1044800F024F9C4B22146B2
:100AD000014800F02AF910BD0038014021B1828997
:100AE00042F40052828104E082894DF6FF731A407D
:100AF0008281704710B586B0044601210520FFF7BA
:100B0000B1FD01218803FFF7ADFD4FF40070ADF892
:100B1000140018208DF8170003208DF8160005A981
:100B20001648FFF72CFB4FF48060ADF8140004204A
:100B30008DF8170005A91148FFF721FB019400204B
:100B4000ADF80800ADF80A00ADF80C00ADF81000E3
:100B50000C20ADF80E0001A9094800F06FF8FFF76E
:100B600027FD012240F22551054800F042F80121FD
:100B70000348FFF7B3FF06B010BD000000080140B6
:100B80000038014002460020B1F5007F00D100BFCF
:100B900013880B400BB1012000E00020704770B5B6
:100BA0000246002400230025002040F66A16B142C8
:100BB00000D100BFC1F3421501F01F03012606FA60
:100BC00003F3012D02D19689334006E0022D02D1B4
:100BD000168A334001E0968A33400C12012606FA49
:100BE00004F41688344013B10CB1012000E0002059
:100BF00070BDF0B50346002400260025002040F615
:100C00006A17B94200D100BF1846C1F3421401F07F
:100C10001F06012707FA06F5012C01D10C3004E06C
:100C2000022C01D1103000E014301AB107682F43B4
:100C3000076002E00768AF430760F0BD2DE9F047A9
:100C400086B005460E460024A24600BFA1460027F6
:100C5000B08900B100BF2F462C8A4CF6FF700440CB
:100C6000F08804432C82AC894EF6F3100440B0881F
:100C700031890843718908430443AC81AC8A4FF63B
:100C8000FF400440B0890443AC8201A8FFF7FAFC9E
:100C90001F48874202D1DDF810A001E0DDF80CA06A
:100CA000A88900F4004040B10AEBCA0000EB0A102A
:100CB00031684900B0FBF1F807E00AEBCA0000EB2D
:100CC0000A1031688900B0FBF1F86420B8FBF0F03D
:100CD00004012009642101FB1089A88900F4004067
:100CE00040B1322000EBC900B0FBF1F000F007008A
:100CF000044308E0322000EB09106421B0FBF1F05E
:100D000000F00F0004432C8106B0BDE8F08700001E
:100D10000038014001468888C0F308007047C1F3DD
:100D200008028280704700BFFEE770B504460D469A
:100D300029462046FFF7F3FF00BF80212046FFF73A
:100D400021FF0028F9D070BD70B506460C4600257D
:100D500000BF615D3046FFF7E8FF6D1C605D002855
:100D6000F7D100BF40213046FFF70CFF0028F9D033
:100D700070BD00000FB4054B10B503A9044A0298DA
:100D800000F018F810BC5DF814FB0000250F0008F7
:100D90002000002002E008C8121F08C1002AFAD172
:100DA00070477047002001E001C1121F002AFBD1EB
:100DB000704700002DE9FF4F89B09B46044600258F
:100DC00006E025280BD05A460B999047641C6D1CF1
:100DD00020780028F5D10DB02846BDE8F08F002717
:100DE000B8460122474900E0074314F8013F203B81
:100DF00002FA03F00842F7D120782E2819D114F80E
:100E0000010F47F004072A280ED06FF02F02207838
:100E1000A0F1300109290CD808EB880102EB41014F
:100E200000EB0108641CF2E70A98641C50F8048B7C
:100E30000A9020780028CED0642808D0692806D0EF
:100E400075281ED05A460B9990476D1C58E00A9998
:100E50004FF00A0901C90A91002802DA40422D2107
:100E600002E0390504D52B218DF82010012103E083
:100E7000F90704D02021F7E78A4608AE0DE00021EB
:100E8000FAE70A994FF00A0901C90A91F7E74946BA
:100E9000FFF74AF9303106F8011D0028F7D1ADEB14
:100EA000060000F12009780701D44FF00108C84579
:100EB00002DDA8EB090000E000208046002706E0E4
:100EC00008A85A46C05D0B9990476D1C7F1C57457A
:100ED000F6DB04E030205A460B9990476D1CB8F1C0
:100EE0000001A8F10108F5DC05E016F8010B5A46EF
:100EF0000B9990476D1CB9F10001A9F10109F4DCCF
:100F0000641C65E709280100002107E0002200E0D9
:100F1000521C42F234139A42FAD3491C8142F5D34F
:100F20007047000070B504460D46E1B20548FFF772
:100F3000F6FE00BF80210348FFF724FE0028F9D009
:100F4000204670BD00380140FFF7F2F9082017492C
:100F500008604FF4E130FFF7CDFD15A0FFF70AFF61
:100F600021A12C48FFF7F0FEFFF730FC01212820DB
:100F7000FFF770FAFFF71AFA16E020200B49091F55
:100F800008601420FFF7C0FF4FF4005022490861A9
:100F9000202006490860FFF7A7FA1420FFF7B4FFE6
:100FA0004FF400501C494861E7E70000140C014071
:100FB0000D0A202F2F2F2F2F2F2F2F2F2F2F2F2F97
:100FC0002F2F2044524F4E4520204D45524355521D
:100FD00059202F2F2F2F2F2F2F2F2F2F2F2F2F2F06
:100FE0002F2F2F2F2F0000000D0A2044726F6E65E7
:100FF000204D6572637572792055534152542053C8
:10100000746172742052756E6E696E67202E2E2E7A
:101010002E200A00003801400010014010B504469F
:1010200004211748FFF77EF9052216493020FFF703
:1010300089FA052213492A20FFF784FA2022214643
:10104000A020FFF77FFA01212120FFF79BFA012161
:101050002220FFF797FA1A212420FFF793FA28217C
:101060002520FFF78FFA0F212620FFF78BFA0E219C
:101070002020FFF787FA04210148FFF755F910BD3A
:10108000000C014014000020A810000800000020FF
:1010900024000000940D0008CC100008240000205B
:1010A00004040000A40D0008000000000102030475
:1010B00001020304060708090204060841414141F0
:0C10C00041424242424200000000000099
:04000005080000ED02
:00000001FF
