:020000040800F2
:100000008804002005010008C10400084504000818
:10001000BD040008790100086F0F0008000000000F
:10002000000000000000000000000000B10B00080C
:100030007D01000800000000850800089D0C0008F4
:100040001F0100081F0100081F0100081F01000810
:100050001F0100081F0100087F0100081F010008A0
:100060001F0100081F0100081F0100081F010008F0
:100070001F0100081F0100081F0100081F010008E0
:100080001F0100081F0100081F0100081F010008D0
:100090001F0100081F0100081F0100081F010008C0
:1000A0001F0100081F0100081F0100081F010008B0
:1000B0001F0100081F0100081F0100081F010008A0
:1000C0001F0100081F0100081F0100081F01000890
:1000D0001F010008010D00081F0100081F01000892
:1000E0001F0100081F0100081F010008DFF810D0E1
:1000F00000F030F80048004791110008AFF300808D
:10010000880400200648804706480047FEE7FEE7CF
:10011000FEE7FEE7FEE7FEE7FEE7FEE7FEE7FEE7B7
:10012000A10C0008ED00000830B50B460146002088
:100130002022012409E021FA02F59D4205D303FAA9
:1001400002F5491B04FA02F52844151EA2F101022A
:10015000F1DC30BD064C074D06E0E06840F00103DD
:1001600094E8070098471034AC42F6D3FFF7C2FF7B
:10017000D4120008F412000800BFFEE7704710B563
:10018000012000F00DF820B1012000F003F800F08C
:10019000EDF910BD014908607047000014040140EA
:1001A000014600200022074B1B6803EA0102054BB1
:1001B00014331B680B4013B10AB1012000E000208A
:1001C0007047000000040140002123498279002A81
:1001D0003AD00A46126803689A430B461A600A1D11
:1001E000126803689A430B1D1A60027911440A6869
:1001F00003681A430A60184A0832126803689A436F
:10020000154B08331A601A1D126803689A43124B83
:100210000C331A604279102A0ED11A1F1268036833
:100220001A430D4B08331A601A1D126803681A43EB
:10023000094B0C331A600DE00749427911440A68F2
:1002400003681A430A6005E0027911440A680368EA
:100250009A430A60704700000004014030B5002254
:100260008B071C0F0F2303FA04F20B4B8C1053F86F
:1002700024309343084C8D1044F8253023468C10CD
:1002800053F824308C07240F00FA04F42343024C63
:100290008D1044F8253030BD080001402DE9F041B3
:1002A000024600250026002000230024002791F8A4
:1002B00003C00CF00F0591F803C00CF0100CBCF15A
:1002C000000F03D091F802C04CEA050591F800C078
:1002D000BCF1000F31D0146800202BE04FF0010C6E
:1002E0000CFA00F3B1F800C00CEA03069E4220D1DC
:1002F00083004FF00F0C0CFA03F7BC4305FA03FC24
:100300004CEA040491F803C0BCF1280F06D14FF069
:10031000010C0CFA00FCC2F814C00AE091F803C00A
:10032000BCF1480F05D14FF0010C0CFA00FCC2F8EB
:1003300010C0401C0828D1D31460B1F800C0BCF133
:10034000FF0F34DD546800202EE000F1080C4FF060
:10035000010808FA0CF3B1F800C00CEA03069E424B
:1003600021D183004FF00F0C0CFA03F7BC4305FAC0
:1003700003FC4CEA040491F803C0BCF1280F05D13A
:1003800000F1080C08FA0CF8C2F8148091F803C0C8
:10039000BCF1480F07D100F1080C4FF0010808FA32
:1003A0000CF8C2F81080401C0828CED35460BDE879
:1003B000F0810000F0B50A4600230024002100254A
:1003C00000F00046B6F1004F02D11D4EF16901E088
:1003D0001B4E7168C0F3034583B200F44016B6F5B6
:1003E000401F08D121F07061154E766826F07066C6
:1003F000134F7E6012E000F48016B6F5801F06D120
:10040000032606FA05F4A14341F0706106E0460DAB
:10041000360103FA06F6B14341F0706122B1460D90
:10042000360103FA06F6314300F00046B6F1004FFC
:1004300002D1034EF16101E0014E7160F0BD000098
:100440000000014000BFFEE708B50121082000F0D0
:100450001BFA0121102000F017FA0121084600F0D4
:1004600013FA01211148FFF7A5FF01211048FFF7FA
:10047000A1FF0820ADF8000010208DF80300032034
:100480008DF8020069460B48FFF708FF4FF4005053
:10049000ADF8000010208DF8030003208DF8020055
:1004A00069460548FFF7FAFE08BD00000004300069
:1004B00000023000000C01400010014000BFFEE7C8
:1004C000704700001CB505221049302000F04EF99D
:1004D00005226946102000F015F9002408E01DF8F7
:1004E00004000A49095D884200D003E0601CC4B2E0
:1004F000052CF4DB00BF052C03D105A000F05EFD48
:1005000002E00EA000F05AFD1CBD00001400002007
:100510000D0A204E524632344C30312009496E6962
:100520007469616C69736174696F6E20537563637C
:1005300065737366756C202E2E2E00000D0A2057F1
:1005400041524E494E473A2020094E524632344CD1
:10055000303120496E697469616C69736174696FC7
:100560006E204661696C65642021000070B507202B
:1005700000F0E8F8044604F0400098B1602000F074
:10058000E1F80546202D08D12A460F49612000F0E8
:10059000B9F800200D49088003E0FF21E22000F0B7
:1005A00003F900BF04F0100030B104F0010018B1ED
:1005B000FF21E12000F0F8F800F054F82146272050
:1005C00000F0F2F870BD0000640000201E00002062
:1005D00070B505460C4604201F490860FF21E12044
:1005E00000F0E2F8FF21E22000F0DEF805221B49CE
:1005F000302000F0BBF8052219492A2000F0B6F897
:100600000121212000F0D0F80121222000F0CCF8B7
:100610001A21242000F0C8F82821252000F0C4F871
:100620002021312000F0C0F80F21262000F0BCF876
:10063000012C04D10E21202000F0B6F805E0022C98
:1006400003D10F21202000F0AFF804200249091F38
:10065000086000F037F870BD140C01401400002051
:100660001900002010B50420054908600F21202042
:1006700000F09AF804200249091F086010BD00002C
:10068000140C01401CB50DA103C9CDE90001684659
:1006900000F0EAFD072000F055F8044604F01000D1
:1006A00050B104F0010038B1FF21E12000F07CF8E6
:1006B0002146272000F078F81CBD0000FE64FBF7FF
:1006C000EFDFBF7F1CB500240DE001226946072043
:1006D00000F018F805A000F071FC9DF8001007A0CC
:1006E00000F06CFC641C012CEFDB1CBD42756666DF
:1006F0006572205354415455533A00002564200A32
:10070000000000002DE9F04107460D461646102076
:100710000B490860384600F003FA8046002405E0E3
:10072000002000F0FDF92855601CC4B2B442F7DB8C
:1007300010200349091F08604046BDE8F081000011
:100740001408014070B5044610200749086020468F
:1007500000F0E6F9002000F0E3F905461020024918
:10076000091F0860284670BD140801402DE9F041BA
:1007700007460D46164610200A490860384600F024
:10078000CFF98046002404E0285D00F0C9F9601C20
:10079000C4B2B442F8DB10200249091F0860404689
:1007A000BDE8F0811408014070B505460C461020E4
:1007B00007490860284600F0B3F90646204600F0D5
:1007C000AFF910200249091F0860304670BD0000D3
:1007D0001408014008B54FF4A06000F049F8252046
:1007E0008DF8000001208DF8010000208DF8020036
:1007F00001208DF80300684600F002F808BD0000F3
:1008000070B5002100230F22C47804B3154C24686E
:1008100004F4E064C4F5E064210AC1F10403CA40B1
:10082000447804FA03F184781440214309010E4C02
:100830000678A155047804F01F050124AC40057822
:100840006D11AD0005F1E025C5F8004109E004781F
:1008500004F01F050124AC40044D0678761145F8DC
:10086000264070BD0CED00E000E400E080E100E017
:1008700002490143024A1160704700000000FA0576
:100880000CED00E07047000029B1064A926902436E
:10089000044B9A6104E0034A92698243014B9A61D6
:1008A000704700000010024030B5002100220024F3
:1008B00000232D4D6D6805F00C0121B1042905D0F0
:1008C000082923D105E0294D056022E0284D056067
:1008D0001FE0254D6D6805F47012234D6D6805F419
:1008E0008034022505EB92421CB9224D5543056028
:1008F0000BE01D4D6D6805F400351DB11B4D5543D2
:10090000056002E01A4D5543056002E0174D056091
:1009100000BF00BF144D6D6805F0F0010909164DC8
:100920006B5C0568DD4045600F4D6D6805F4E06166
:10093000090A114D6B5C4568DD4085600A4D6D68A4
:1009400005F46051C90A0C4D6B5C4568DD40C5601B
:10095000054D6D6805F44041890B084D6B5CC56819
:10096000B5FBF3F5056130BD0010024000127A00BE
:100970000024F40000093D000000002010000020C9
:1009800021B1028842F04002028004E002884FF662
:10099000BF731A40028070470246002013890B4043
:1009A0000BB1012000E000207047014688897047A4
:1009B0008181704710B50022028802F441520B88F1
:1009C0004C8823438C882343CC8823430C892343BE
:1009D0004C8923438C892343CC8923431A430280C7
:1009E000838B4FF2FF74234083830B8A038210BDF5
:1009F00000B589B001210420FFF746FF012108203E
:100A0000FFF742FF01210803FFF73EFFE020ADF8AA
:100A10000C0001208DF80E0018208DF80F0003A99E
:100A20003348FFF73BFC0420ADF80C0001208DF8A3
:100A30000E0010208DF80F0003A92E48FFF72EFCA2
:100A40001020ADF80C0001208DF80E0010208DF85C
:100A50000F0003A92648FFF721FC0120ADF80C0088
:100A600003208DF80E0048208DF80F0003A92148BF
:100A7000FFF714FC00210120FFF7F0FB012001909B
:100A800000208DF808000C208DF8090001208DF859
:100A90000A0001A8FFF798FB1020154910310860E3
:100AA0000020ADF810004FF48270ADF81200002065
:100AB000ADF81400ADF81600ADF818004815ADF803
:100AC0001A001020ADF81C000020ADF81E00072011
:100AD000ADF8200004A90848FFF76CFF0121064883
:100AE000FFF74EFF05A000F069FA09B000BD000055
:100AF00000080140000C0140003001400D0A205365
:100B0000504909496E697469616C69736174696FF0
:100B10006E2066696E6973686564202E2E2E000053
:100B200070B504464FF4805507E0281EA5F1010575
:100B300003D100F023F8C0B270BD02210E48FFF7C8
:100B40002BFF0028F1D021460B48FFF731FF08E0CA
:100B5000281EA5F1010504D1012000F00FF8C0B254
:100B6000EAE701210448FFF717FF0028F0D0024808
:100B7000FFF71BFFC0B2DFE70030014010B50446AD
:100B8000214602A000F01AFA002010BD535049205F
:100B900077616974206F76657274696D652165721D
:100BA000726F72436F6465203D2025640000000071
:100BB000704710B500F002F810BD00000CB5002021
:100BC000019000903348006840F48030314908605B
:100BD00000BF3048006800F4003000900198401CCD
:100BE0000190009818B90198B0F5A06FF1D129488B
:100BF000006800F4003010B10120009001E00020F6
:100C000000900098012843D12348006840F010006C
:100C1000214908600846006820F003000860084683
:100C2000006840F0020008601A48406819494860AE
:100C30000846406848600846406840F48060486064
:100C40000846406820F47C1048600846406840F43C
:100C5000F81048600846006840F08070086000BFE7
:100C60000C48006800F000700028F9D0094840687E
:100C700020F00300074948600846406840F0020041
:100C8000486000BF0348406800F00C000828F9D114
:100C90000CBD000000100240002002407047000020
:100CA00010B51348006840F001001149086008467B
:100CB0004068104908400E494860084600680E49DF
:100CC00008400B4908600846006820F4802008604E
:100CD0000846406820F4FE0048604FF41F0088601A
:100CE000FFF767FF4FF000600449086010BD000087
:100CF000001002400000FFF8FFFFF6FE08ED00E0E4
:100D000010B540F22551064800F06DF838B104489E
:100D100000F024F9C4B22146014800F02AF910BDC0
:100D20000038014021B1828942F40052828104E0FE
:100D300082894DF6FF731A408281704710B586B0E4
:100D4000044601210520FFF79FFD01218803FFF7DD
:100D50009BFD4FF40070ADF8140018208DF81700BB
:100D600003208DF8160005A91648FFF797FA4FF4EF
:100D70008060ADF8140004208DF8170005A9114813
:100D8000FFF78CFA01940020ADF80800ADF80A00D6
:100D9000ADF80C00ADF810000C20ADF80E0001A964
:100DA000094800F06FF8FFF715FD012240F22551C8
:100DB000054800F042F801210348FFF7B3FF06B0F1
:100DC00010BD00000008014000380140024600202C
:100DD000B1F5007F00D100BF13880B400BB101209B
:100DE00000E00020704770B5024600240023002573
:100DF000002040F66A16B14200D100BFC1F342158F
:100E000001F01F03012606FA03F3012D02D1968992
:100E1000334006E0022D02D1168A334001E0968A63
:100E200033400C12012606FA04F41688344013B13C
:100E30000CB1012000E0002070BDF0B50346002495
:100E400000260025002040F66A17B94200D100BFF5
:100E50001846C1F3421401F01F06012707FA06F5F0
:100E6000012C01D10C3004E0022C01D1103000E043
:100E700014301AB107682F43076002E00768AF43D8
:100E80000760F0BD2DE9F04786B005460E46002408
:100E9000A24600BFA1460027B08900B100BF2F467F
:100EA0002C8A4CF6FF700440F08804432C82AC89F5
:100EB0004EF6F3100440B088318908437189084325
:100EC0000443AC81AC8A4FF6FF400440B089044330
:100ED000AC8201A8FFF7E8FC1F48874202D1DDF889
:100EE00010A001E0DDF80CA0A88900F4004040B19A
:100EF0000AEBCA0000EB0A1031684900B0FBF1F8B8
:100F000007E00AEBCA0000EB0A1031688900B0FB69
:100F1000F1F86420B8FBF0F004012009642101FB22
:100F20001089A88900F4004040B1322000EBC900CC
:100F3000B0FBF1F000F00700044308E0322000EBC2
:100F400009106421B0FBF1F000F00F0004432C8184
:100F500006B0BDE8F08700000038014001468888EF
:100F6000C0F308007047C1F308028280704700BFD9
:100F7000FEE770B504460D4629462046FFF7F3FF0D
:100F800000BF80212046FFF721FF0028F9D070BD67
:100F900070B506460C46002500BF615D3046FFF780
:100FA000E8FF6D1C605D0028F7D100BF402130468E
:100FB000FFF70CFF0028F9D070BD00000FB4054BFF
:100FC00010B503A9044A029800F018F810BC5DF8A7
:100FD00014FB00006D1100082000002002E008C88A
:100FE000121F08C1002AFAD170477047002001E0A3
:100FF00001C1121F002AFBD1704700002DE9FF4FED
:1010000089B09B460446002506E025280BD05A46A9
:101010000B999047641C6D1C20780028F5D10DB009
:101020002846BDE8F08F0027B8460122474900E076
:10103000074314F8013F203B02FA03F00842F7D1BE
:1010400020782E2819D114F8010F47F004072A2818
:101050000ED06FF02F022078A0F1300109290CD8B2
:1010600008EB880102EB410100EB0108641CF2E788
:101070000A98641C50F8048B0A9020780028CED07F
:10108000642808D0692806D075281ED05A460B99C6
:1010900090476D1C58E00A994FF00A0901C90A915E
:1010A000002802DA40422D2102E0390504D52B2127
:1010B0008DF82010012103E0F90704D02021F7E783
:1010C0008A4608AE0DE00021FAE70A994FF00A09B6
:1010D00001C90A91F7E74946FFF726F8303106F8CB
:1010E000011D0028F7D1ADEB060000F120097807BB
:1010F00001D44FF00108C84502DDA8EB090000E06B
:1011000000208046002706E008A85A46C05D0B99DB
:1011100090476D1C7F1C5745F6DB04E030205A4693
:101120000B9990476D1CB8F10001A8F10108F5DC9E
:1011300005E016F8010B5A460B9990476D1CB9F162
:101140000001A9F10109F4DC641C65E7092801002C
:10115000002107E0002200E0521C42F234139A42C0
:10116000FAD3491C8142F5D37047000070B504469C
:101170000D46E1B20548FFF7F6FE00BF80210348A7
:10118000FFF724FE0028F9D0204670BD003801404A
:10119000FFF75AF90820184908604FF4E130FFF7CB
:1011A000CDFD16A0FFF70AFF22A12D48FFF7F0FEA4
:1011B000FFF71EFC01212820FFF70AFAFFF782F94A
:1011C00018E020200C49091F08601420FFF7C0FF19
:1011D0004FF4005023490861202007490860FFF7B9
:1011E00051FAFFF76FFAC820FFF7B2FF4FF4005033
:1011F0001C494861E5E70000140C01400D0A202F4E
:101200002F2F2F2F2F2F2F2F2F2F2F2F2F2F2044E8
:10121000524F4E4520204D455243555259202F2FB5
:101220002F2F2F2F2F2F2F2F2F2F2F2F2F2F2F2FCE
:101230002F0000000D0A2044726F6E65204D65720C
:1012400063757279205553415254205374617274FE
:101250002052756E6E696E67202E2E2E2E200A008B
:10126000003801400010014010B504460420174921
:101270000860052216493020FFF778FA0522144944
:101280002A20FFF773FA20222146A020FFF76EFAEA
:1012900001212120FFF788FA01212220FFF784FA9B
:1012A0001A212420FFF780FA28212520FFF77CFA55
:1012B0000F212620FFF778FA0E212020FFF774FA7D
:1012C00004200249091F086010BD0000140C0140F1
:1012D00014000020F4120008000000202400000088
:1012E000DC0F00081813000824000020640400002C
:1012F000EC0F0008000000000102030401020304D7
:1013000006070809020406081A3B5C7D9E1A3B5C2E
:081310007D9E000000000000BA
:04000005080000ED02
:00000001FF
