:020000040800F2
:100000008804002001010008A50300082903000856
:10001000A103000875010008D30D000800000000CE
:10002000000000000000000000000000150A0008A9
:1000300079010008000000000D070008010B00080E
:100040001B0100081B0100081B0100081B01000820
:100050001B0100081B0100081B0100081B01000810
:100060001B0100081B0100081B0100081B01000800
:100070001B0100081B0100081B0100081B010008F0
:100080001B0100081B0100081B0100081B010008E0
:100090001B0100081B0100081B0100081B010008D0
:1000A0001B0100081B0100081B0100081B010008C0
:1000B0001B0100081B0100081B0100081B010008B0
:1000C0001B0100081B0100081B0100081B010008A0
:1000D0001B010008650B00081B0100081B0100083C
:1000E0001B0100081B0100081B010008DFF80CD0F1
:1000F00000F02EF800480047F50F000888040020A3
:100100000648804706480047FEE7FEE7FEE7FEE7B1
:10011000FEE7FEE7FEE7FEE7FEE7FEE7050B000869
:10012000ED00000830B50B460146002020220124D6
:1001300009E021FA02F59D4205D303FA02F5491BB5
:1001400004FA02F52844151EA2F10102F1DC30BDCB
:10015000064C074D06E0E06840F0010394E8070014
:1001600098471034AC42F6D3FFF7C4FFD010000814
:10017000F010000800BFFEE770472DE9F04102468D
:1001800000250026002000230024002791F803C04A
:100190000CF00F0591F803C00CF0100CBCF1000F2F
:1001A00003D091F802C04CEA050591F800C0BCF1FB
:1001B000000F31D0146800202BE04FF0010C0CFA36
:1001C00000F3B1F800C00CEA03069E4220D1830080
:1001D0004FF00F0C0CFA03F7BC4305FA03FC4CEA92
:1001E000040491F803C0BCF1280F06D14FF0010CB4
:1001F0000CFA00FCC2F814C00AE091F803C0BCF18C
:10020000480F05D14FF0010C0CFA00FCC2F810C0E9
:10021000401C0828D1D31460B1F800C0BCF1FF0F16
:1002200034DD546800202EE000F1080C4FF0010886
:1002300008FA0CF3B1F800C00CEA03069E4221D183
:1002400083004FF00F0C0CFA03F7BC4305FA03FCD4
:100250004CEA040491F803C0BCF1280F05D100F169
:10026000080C08FA0CF8C2F8148091F803C0BCF12D
:10027000480F07D100F1080C4FF0010808FA0CF8FC
:10028000C2F81080401C0828CED35460BDE8F0812D
:10029000F0B50A46002300240021002500F00046A6
:1002A000B6F1004F02D11D4EF16901E01B4E71689D
:1002B000C0F3034583B200F44016B6F5401F08D1E1
:1002C00021F07061154E766826F07066134F7E60DF
:1002D00012E000F48016B6F5801F06D1032606FA58
:1002E00005F4A14341F0706106E0460D360103FAC2
:1002F00006F6B14341F0706122B1460D360103FAB2
:1003000006F6314300F00046B6F1004F02D1034E2D
:10031000F16101E0014E7160F0BD0000000001409C
:10032000416170470161704700BFFEE708B50121D8
:10033000082000F0EDF90121102000F0E9F9012179
:10034000084600F0E5F901211148FFF7A1FF01215E
:100350001048FFF79DFF0820ADF8000010208DF831
:10036000030003208DF8020069460B48FFF705FFE4
:100370004FF40050ADF8000010208DF8030003206A
:100380008DF8020069460548FFF7F7FE08BD00003A
:100390000004300000023000000C01400010014059
:1003A00000BFFEE7704700001CB505221049302051
:1003B00000F01EF905226946102000F0B3F8002471
:1003C00008E01DF804000A49095D884200D003E0F6
:1003D000601CC4B2052CF4DB00BF052C03D105A0C2
:1003E00000F01EFD02E00EA000F01AFD1CBD000092
:1003F000140000200D0A204E524632344C30312079
:1004000009496E697469616C69736174696F6E2002
:100410005375636365737366756C202E2E2E000012
:100420000D0A205741524E494E473A2020094E525C
:100430004632344C303120496E697469616C69739D
:100440006174696F6E204661696C656420210000EB
:1004500070B505460C4604211F48FFF761FFFF21D8
:10046000E12000F0E5F8FF21E22000F0E1F80522AC
:100470001A49302000F0BCF8052219492A2000F062
:10048000B7F80121212000F0D3F80121222000F04B
:10049000CFF81A21242000F0CBF82946252000F0BF
:1004A000C7F82021312000F0C3F80F21262000F0EA
:1004B000BFF8012C04D10E21202000F0B9F805E08E
:1004C000022C03D10F21202000F0B2F804210248B1
:1004D000FFF728FF70BD0000000C01401400002051
:1004E0001900002010B504210548FFF719FF0F215E
:1004F000202000F09DF804210148FFF713FF10BDF4
:10050000000C014010B504210548FFF709FF0E213A
:10051000202000F08DF804210148FFF703FF10BDF3
:10052000000C01402DE9F04107460D46164610210A
:100530000B48FFF7F5FE384600F024FA8046002409
:1005400005E0002000F01EFA2855601CC4B2B44239
:10055000F7DB10210248FFF7E5FE4046BDE8F081D9
:100560000008014070B5044610210848FFF7D8FE86
:10057000204600F007FA002000F004FA054610219A
:100580000248FFF7CFFE284670BD0000000801407A
:1005900070B505460E46FFF7B5FF04211348FFF777
:1005A000BFFE32462946A02000F022F804210F4861
:1005B000FFF7B8FE00BF0D480830006800F00100EA
:1005C0000028F8D10720FFF7CDFF044604F0100003
:1005D00030B104F0010018B1FF21E12000F028F84B
:1005E00004F0200008B1FFF77DFF70BD000C014052
:1005F0002DE9F04107460D46164610210B48FFF73E
:100600008FFE384600F0BEF98046002404E0285DE5
:1006100000F0B8F9601CC4B2B442F8DB1021034802
:10062000FFF780FE4046BDE8F08100000008014071
:1006300070B505460C4610210748FFF771FE2846A5
:1006400000F0A0F90646204600F09CF9102102486F
:10065000FFF768FE304670BD0008014008B54FF452
:10066000A06000F049F825208DF8000001208DF8E9
:10067000010000208DF8020001208DF8030068467B
:1006800000F002F808BD000070B5002100230F2221
:10069000C47804B3154C246804F4E064C4F5E06441
:1006A000210AC1F10403CA40447804FA03F18478B2
:1006B0001440214309010E4C0678A155047804F03A
:1006C0001F050124AC4005786D11AD0005F1E02552
:1006D000C5F8004109E0047804F01F050124AC408E
:1006E000044D0678761145F8264070BD0CED00E00B
:1006F00000E400E080E100E002490143024A1160A9
:10070000704700000000FA050CED00E070470000A3
:1007100029B1064A92690243044B9A6104E0034AF4
:1007200092698243014B9A617047000000100240B9
:1007300030B500210022002400232D4D6D6805F006
:100740000C0121B1042905D0082923D105E0294D48
:10075000056022E0284D05601FE0254D6D6805F419
:100760007012234D6D6805F48034022505EB92422A
:100770001CB9224D554305600BE01D4D6D6805F415
:1007800000351DB11B4D5543056002E01A4D554320
:10079000056002E0174D056000BF00BF144D6D6895
:1007A00005F0F0010909164D6B5C0568DD404560F8
:1007B0000F4D6D6805F4E061090A114D6B5C4568E9
:1007C000DD4085600A4D6D6805F46051C90A0C4D25
:1007D0006B5C4568DD40C560054D6D6805F44041C2
:1007E000890B084D6B5CC568B5FBF3F5056130BD41
:1007F0000010024000127A000024F40000093D00BD
:10080000000000201000002021B1028842F04002C8
:10081000028004E002884FF6BF731A4002807047DE
:100820000246002013890B400BB1012000E000209C
:1008300070470146888970478181704710B5002252
:10084000028802F441520B884C8823438C8823434E
:10085000CC8823430C8923434C8923438C8923432D
:10086000CC8923431A430280838B4FF2FF742340C9
:1008700083830B8A038210BD00B587B00121042059
:10088000FFF746FF01210820FFF742FF012108037F
:10089000FFF73EFFE020ADF8040001208DF80600D0
:1008A00018208DF8070001A92A48FFF766FC0420EC
:1008B000ADF8040001208DF8060010208DF8070027
:1008C00001A92548FFF759FC1020ADF804000120CC
:1008D0008DF8060010208DF8070001A91D48FFF7CC
:1008E0004CFC0120ADF8040003208DF806004820E0
:1008F0008DF8070001A91848FFF73FFC10211548A3
:10090000FFF710FD0020ADF808004FF48270ADF83D
:100910000A000020ADF80C00ADF80E00ADF8100094
:100920004FF40070ADF812001020ADF81400002054
:10093000ADF816000720ADF8180002A90748FFF728
:100940007DFF01210548FFF75FFF05A000F068FA71
:1009500007B000BD00080140000C0140003001401C
:100960000D0A2053504909496E697469616C6973B5
:100970006174696F6E2066696E6973686564202EA4
:100980002E2E000070B504464FF4805507E0280075
:10099000A5F1010503D100F023F8C0B270BD02211A
:1009A0000E48FFF73DFF0028F1D021460B48FFF726
:1009B00043FF08E02800A5F1010504D1012000F063
:1009C0000FF8C0B2EAE701210448FFF729FF002829
:1009D000F0D00248FFF72DFFC0B2DFE70030014042
:1009E00010B50446214602A000F01AFA002010BDFE
:1009F0005350492077616974206F76657274696D10
:100A000065216572726F72436F6465203D202564B5
:100A100000000000704710B500F002F810BD0000A3
:100A20000CB50020019000903348006840F48030FD
:100A30003149086000BF3048006800F40030009081
:100A40000198401C0190009818B90198B0F5A06F6A
:100A5000F1D12948006800F4003010B10120009065
:100A600001E0002000900098012843D1234800684D
:100A700040F01000214908600846006820F003009B
:100A800008600846006840F0020008601A484068A4
:100A9000194948600846406848600846406840F484
:100AA000806048600846406820F47C104860084632
:100AB000406840F4F81048600846006840F08070D4
:100AC000086000BF0C48006800F000700028F9D0F2
:100AD0000948406820F0030007494860084640681C
:100AE00040F00200486000BF0348406800F00C007E
:100AF0000828F9D10CBD000000100240002002407F
:100B00007047000010B51348006840F0010011491B
:100B1000086008464068104908400E494860084689
:100B200000680E4908400B4908600846006820F438
:100B3000802008600846406820F4FE0048604FF4BA
:100B40001F008860FFF767FF4FF0006004490860EE
:100B500010BD0000001002400000FFF8FFFFF6FE8D
:100B600008ED00E010B540F22551064800F06DF8A0
:100B700038B1044800F024F9C4B22146014800F01D
:100B80002AF910BD0038014021B1828942F4005297
:100B9000828104E082894DF6FF731A40828170479A
:100BA00010B586B0044601210520FFF7B1FD0121F3
:100BB0008803FFF7ADFD4FF40070ADF81400182066
:100BC0008DF8170003208DF8160005A91648FFF7C9
:100BD000D4FA4FF48060ADF8140004208DF81700AB
:100BE00005A91148FFF7C9FA01940020ADF80800E3
:100BF000ADF80A00ADF80C00ADF810000C20ADF80F
:100C00000E0001A9094800F06FF8FFF727FD012247
:100C100040F22551054800F042F801210348FFF752
:100C2000B3FF06B010BD00000008014000380140CD
:100C300002460020B1F5007F00D100BF13880B40B1
:100C40000BB1012000E00020704770B5024600247F
:100C500000230025002040F66A16B14200D100BFF3
:100C6000C1F3421501F01F03012606FA03F3012D1B
:100C700002D19689334006E0022D02D1168A334014
:100C800001E0968A33400C12012606FA04F4168815
:100C9000344013B10CB1012000E0002070BDF0B56C
:100CA0000346002400260025002040F66A17B942BA
:100CB00000D100BF1846C1F3421401F01F060127FE
:100CC00007FA06F5012C01D10C3004E0022C01D109
:100CD000103000E014301AB107682F43076002E0BB
:100CE0000768AF430760F0BD2DE9F04786B00546C1
:100CF0000E460024A24600BFA1460027B08900B1DD
:100D000000BF2F462C8A4CF6FF700440F088044345
:100D10002C82AC894EF6F3100440B0883189084328
:100D2000718908430443AC81AC8A4FF6FF4004400C
:100D3000B0890443AC8201A8FFF7FAFC1F48874240
:100D400002D1DDF810A001E0DDF80CA0A88900F4C4
:100D5000004040B10AEBCA0000EB0A1031684900BC
:100D6000B0FBF1F807E00AEBCA0000EB0A103168AB
:100D70008900B0FBF1F86420B8FBF0F00401200911
:100D8000642101FB1089A88900F4004040B13220A1
:100D900000EBC900B0FBF1F000F00700044308E0ED
:100DA000322000EB09106421B0FBF1F000F00F00DD
:100DB00004432C8106B0BDE8F087000000380140F4
:100DC00001468888C0F308007047C1F3080282809A
:100DD000704700BFFEE770B504460D462946204621
:100DE000FFF7F3FF00BF80212046FFF721FF002817
:100DF000F9D070BD70B506460C46002500BF615D98
:100E00003046FFF7E8FF6D1C605D0028F7D100BF9A
:100E100040213046FFF70CFF0028F9D070BD0000DC
:100E20000FB4054B10B503A9044A029800F018F856
:100E300010BC5DF814FB0000D10F0008200000205A
:100E400002E008C8121F08C1002AFAD17047704793
:100E5000002001E001C1121F002AFBD170470000F1
:100E60002DE9FF4F89B09B460446002506E0252862
:100E70000BD05A460B999047641C6D1C20780028B3
:100E8000F5D10DB02846BDE8F08F0027B846012205
:100E9000474900E0074314F8013F203B02FA03F002
:100EA0000842F7D120782E2819D114F8010F47F005
:100EB00004072A280ED06FF02F022078A0F130010D
:100EC00009290CD808EB880102EB410100EB01086D
:100ED000641CF2E70A98641C50F8048B0A9020788E
:100EE0000028CED0642808D0692806D075281ED0E6
:100EF0005A460B9990476D1C58E00A994FF00A0921
:100F000001C90A91002802DA40422D2102E0390588
:100F100004D52B218DF82010012103E0F90704D01E
:100F20002021F7E78A4608AE0DE00021FAE70A998A
:100F30004FF00A0901C90A91F7E74946FFF7F2F8AD
:100F4000303106F8011D0028F7D1ADEB060000F1A5
:100F50002009780701D44FF00108C84502DDA8EB4D
:100F6000090000E000208046002706E008A85A4655
:100F7000C05D0B9990476D1C7F1C5745F6DB04E064
:100F800030205A460B9990476D1CB8F10001A8F12A
:100F90000108F5DC05E016F8010B5A460B9990475D
:100FA0006D1CB9F10001A9F10109F4DC641C65E7CD
:100FB00009280100002107E0002200E0521C42F253
:100FC00034139A42FAD3491C8142F5D3704700008A
:100FD00070B504460D46E1B20548FFF7F6FE00BFC6
:100FE00080210348FFF724FE0028F9D0204670BD79
:100FF00000380140FFF79AF90820184908604FF4BB
:10100000E130FFF7CDFD16A0FFF70AFF22A12D4822
:10101000FFF7F0FEFFF730FC01212820FFF718FA58
:10102000FFF7C2F918E020200C49091F08601420BE
:10103000FFF7C0FF4FF400502349086120212348E7
:10104000FFF7A6FA2020054908601420FFF7B2FF39
:101050004FF400501C494861E5E70000140C0140C2
:101060000D0A202F2F2F2F2F2F2F2F2F2F2F2F2FE6
:101070002F2F2044524F4E4520204D45524355526C
:1010800059202F2F2F2F2F2F2F2F2F2F2F2F2F2F55
:101090002F2F2F2F2F0000000D0A2044726F6E6536
:1010A000204D657263757279205553415254205317
:1010B000746172742052756E6E696E67202E2E2ECA
:1010C0002E200A000038014000100140640000207A
:1010D000F01000080000002024000000400E00086E
:1010E000141100082400002064040000500E0008C1
:1010F00000000000010203040102030406070809BE
:10110000020406081A3B5C7D9E1A3B5C7D9E000033
:0411100000000000DB
:04000005080000ED02
:00000001FF
