:020000040800F2
:100000007004002001010008C10800082103000855
:10001000BD08000875010008630F0008000000001B
:100020000000000000000000000000006D0A000851
:10003000790100080000000071090008910C000817
:100040001B0100081B0100081B0100081B01000820
:100050001B0100081B0100081B0100081B01000810
:100060001B0100081B0100081B0100081B01000800
:100070001B0100081B0100081B0100081B010008F0
:100080001B0100081B0100081B0100081B010008E0
:100090001B0100081B0100081B0100081B010008D0
:1000A0001B0100081B0100081B0100081B010008C0
:1000B0001B0100081B0100081B0100081B010008B0
:1000C0001B0100081B0100081B0100081B010008A0
:1000D0001B010008F50C00081B0100081B010008AB
:1000E0001B0100081B0100081B010008DFF80CD0F1
:1000F00000F02EF80048004781110008700400202D
:100100000648804706480047FEE7FEE7FEE7FEE7B1
:10011000FEE7FEE7FEE7FEE7FEE7FEE7950C0008D8
:10012000ED00000830B50B460146002020220124D6
:1001300009E021FA02F59D4205D303FA02F5491BB5
:1001400004FA02F52844151EA2F10102F1DC30BDCB
:10015000064C074D06E0E06840F0010394E8070014
:1001600098471034AC42F6D3FFF7C4FF5012000892
:100170007012000800BFFEE770472DE9F04102460B
:1001800000250026002000230024002791F803C04A
:100190000CF00F0591F803C00CF0100CBCF1000F2F
:1001A00003D091F802C04CEA050591F800C0BCF1FB
:1001B000000F31D0146800202BE04FF0010C0CFA36
:1001C00000F3B1F800C00CEA03069E4220D1830080
:1001D0004FF00F0C0CFA03F7BC4305FA03FC4CEA92
:1001E000040491F803C0BCF1280F06D14FF0010CB4
:1001F0000CFA00FCC2F814C00AE091F803C0BCF18C
:10020000480F05D14FF0010C0CFA00FCC2F810C0E9
:10021000401C0828D1D31460B1F800C0BCF1FF0F16
:1002200034DD546800202EE000F1080C4FF0010886
:1002300008FA0CF3B1F800C00CEA03069E4221D183
:1002400083004FF00F0C0CFA03F7BC4305FA03FCD4
:100250004CEA040491F803C0BCF1280F05D100F169
:10026000080C08FA0CF8C2F8148091F803C0BCF12D
:10027000480F07D100F1080C4FF0010808FA0CF8FC
:10028000C2F81080401C0828CED35460BDE8F0812D
:10029000F0B50A46002300240021002500F00046A6
:1002A000B6F1004F02D11D4EF16901E01B4E71689D
:1002B000C0F3034583B200F44016B6F5401F08D1E1
:1002C00021F07061154E766826F07066134F7E60DF
:1002D00012E000F48016B6F5801F06D1032606FA58
:1002E00005F4A14341F0706106E0460D360103FAC2
:1002F00006F6B14341F0706122B1460D360103FAB2
:1003000006F6314300F00046B6F1004F02D1034E2D
:10031000F16101E0014E7160F0BD0000000001409C
:1003200000BFFEE708B50121082000F023FB2020D4
:10033000ADF8000003208DF8020010208DF80300B6
:1003400069460E48FFF719FF4FF48060ADF80000D2
:1003500014208DF8030069460848FFF70EFF4FF49C
:100360000060ADF8000014208DF8030069460348D2
:10037000FFF703FF02A000F01BFE08BD000C0140C8
:100380000D0A20493243204750494F20496E697475
:1003900069616C69736174696F6E2066696E6973F7
:1003A000686564202E2E2E004FF480600949086095
:1003B00000BF4FF400600749086000BF4FF4806041
:1003C0000449091F086000BF4FF4806001490860BC
:1003D00000BF7047140C01404FF48060044908606E
:1003E0004000091F086040100860091D0860704740
:1003F000140C0140082100200A02134B1A6000BFB0
:1004000016E04FF48062104B1B1D1A6000BF00BF46
:100410004FF480620C4B1A6000BF4206100E00BF02
:10042000094A083A126802F400620AB140F0010079
:100430000A00A1F10103D9B2E3D14FF48062024B6B
:100440001B1D1A6070470000100C01404FF48060C3
:10045000134908604000091F08604010086000BF91
:100460000F480C38006808B9012000E0002000F4B3
:10047000006008B1002070474FF400600849086030
:1004800000BF07480C38006800F4006008B1002085
:10049000F1E74FF40060024908600120EBE700003B
:1004A000140C01404FF4806004490860400008606B
:1004B0004010091F0860400008607047140C01409C
:1004C00010B54FF480601349086000BF4FF400601E
:1004D0001049091F086000BF4FF480600D49091FD3
:1004E000086000BF0B480C38006800F4006048B199
:1004F0004FF480600749086000BF07A000F058FD76
:10050000002010BD4FF480600249086000BF012048
:10051000F7E70000140C01400D0A20493243207215
:10052000656365697665204E61636B206F72206E2E
:100530006F20526573706F6E64696E67202E2E2E69
:1005400000000000082115E04FF480620E4B1A6095
:1005500000F080021AB1DA141B1F1A6003E04FF496
:100560000062094B1A604206100E4FF48062064B7F
:100570001B1F1A600A00A1F10103D9B2E4D14FF4A4
:100580008062014B1A607047140C014010B540F6B0
:10059000FF7000F0DDFD752000F0DEFA68280CD059
:1005A000752000F0D9FA044621461AA000F000FD9B
:1005B0001DA000F0FDFC002010BD00216B2000F00C
:1005C0001DFB44F6206000F0C3FD0021192000F05F
:1005D00015FB44F6206000F0BBFD00211A2000F05E
:1005E0000DFB44F6206000F0B3FD18211B2000F045
:1005F00005FB44F6206000F0ABFD1F211C2000F03D
:10060000FDFA44F6206000F0A3FD0EA000F0D0FC3F
:100610000120D1E70D0A2057484F5F414D5F492027
:100620003D202564000000002C4D505536303530FB
:10063000206F70656E206661696C6564202E2E2EB9
:10064000200D0A000D0A204D5055363035302069F6
:100650006E697469616C6973652066696E69736837
:100660006564210008B50121082000F083F901210B
:10067000102000F07FF90121084600F07BF90121EC
:100680001148FFF705FE01211048FFF701FE082081
:10069000ADF8000010208DF8030003208DF8020053
:1006A00069460B48FFF769FD4FF40050ADF80000B4
:1006B00010208DF8030003208DF8020069460548DC
:1006C000FFF75BFD08BD00000004300000023000B1
:1006D000000C01400010014000201AE041000E4AC9
:1006E00052F821100D4A42F82010114651F82010FE
:1006F000090242F82010114651F820204100491CFF
:10070000054B53F821101144044A42F82010411CB3
:10071000C8B20828E2DB7047180000205000002013
:1007200010B513A000F044FC1A4801681AA000F0AC
:100730003FFC184841681DA000F03AFC154881684C
:100740001FA000F035FC1348C16822A000F030FC67
:100750001048016924A000F02BFC0E48416927A035
:1007600000F026FC0B48816929A000F021FC10BD97
:100770000D0A202D2D2D2D20474554204D50553646
:100780003035302044415441202D2D2D2D200D0A8F
:1007900000000000500000200D0A20414343454C5A
:1007A0005F584F5554203D20256400000D0A20411C
:1007B0004343454C5F594F5554203D20256400006C
:1007C0000D0A20414343454C5F5A4F5554203D206C
:1007D000256400000D0A2054454D505F4F555420AC
:1007E0003D202564000000000D0A204759524F5F4C
:1007F000584F5554203D2025640000000D0A204725
:1008000059524F5F594F5554203D20256400000038
:100810000D0A204759524F5F5A4F5554203D20250D
:100820006400000010B50E24FFF710FE20B919A0D7
:1008300000F0BEFB002010BDD020FFF783FEFFF7C5
:100840003FFE18B9FFF72EFE0020F4E73B20FFF72C
:1008500079FEFFF735FEFFF7F9FDD120FFF772FEB5
:10086000FFF72EFE08E0FFF7C5FDC4F10D01124AA7
:1008700042F82100FFF798FD601EC0B20400F2D1DB
:10088000FFF7B8FD0C494863FFF7A6FDFFF70AFE26
:100890000120D0E70D0A205761726E696E673A2019
:1008A000493243207374617274206661696C6564B7
:1008B000202E2E2E000000001800002000BFFEE7B2
:1008C000704708B54FF4A06000F048F825208DF877
:1008D000000001208DF8010000208DF802000120A9
:1008E0008DF80300684600F001F808BD70B50021DE
:1008F00000230F22C47804B3154C246804F4E06488
:10090000C4F5E064210AC1F10403CA40447804FA42
:1009100003F184781440214309010E4C0678A15557
:10092000047804F01F050124AC4005786D11AD007A
:1009300005F1E025C5F8004109E0047804F01F0541
:100940000124AC40044D0678761145F8264070BD70
:100950000CED00E000E400E080E100E0024901432A
:10096000024A1160704700000000FA050CED00E03B
:100970007047000029B1064A92690243044B9A610C
:1009800004E0034A92698243014B9A617047000078
:100990000010024030B500210022002400232D4D1C
:1009A0006D6805F00C0121B1042905D0082923D177
:1009B00005E0294D056022E0284D05601FE0254D2A
:1009C0006D6805F47012234D6D6805F480340225BE
:1009D00005EB92421CB9224D554305600BE01D4DBD
:1009E0006D6805F400351DB11B4D5543056002E0EF
:1009F0001A4D5543056002E0174D056000BF00BF6A
:100A0000144D6D6805F0F0010909164D6B5C056821
:100A1000DD4045600F4D6D6805F4E061090A114D38
:100A20006B5C4568DD4085600A4D6D6805F460517A
:100A3000C90A0C4D6B5C4568DD40C560054D6D68AD
:100A400005F44041890B084D6B5CC568B5FBF3F5B7
:100A5000056130BD0010024000127A000024F4004D
:100A600000093D000000002010000020704710B574
:100A700000F002F810BD00000CB5002001900090BD
:100A80003348006840F480303149086000BF304886
:100A9000006800F4003000900198401C019000981C
:100AA00018B90198B0F5A06FF1D12948006800F499
:100AB000003010B10120009001E00020009000986B
:100AC000012843D12348006840F010002149086004
:100AD0000846006820F0030008600846006840F0FF
:100AE000020008601A484068194948600846406892
:100AF00048600846406840F48060486008464068A6
:100B000020F47C1048600846406840F4F8104860C3
:100B10000846006840F08070086000BF0C4800681C
:100B200000F000700028F9D00948406820F0030068
:100B3000074948600846406840F00200486000BF2E
:100B40000348406800F00C000828F9D10CBD0000F3
:100B5000001002400020024070B50446FFF776FC0A
:100B600020B914A000F024FA002070BDD020FFF7B7
:100B7000E9FCFFF7A5FC30B9FFF794FC16A000F0E4
:100B800017FA0020F1E72046FFF7DCFCFFF798FC9E
:100B9000FFF75CFC00BFD120FFF7D4FCFFF790FC0F
:100BA000FFF728FC054600BFFFF716FCFFF77AFCAD
:100BB0002846DAE70D0A205761726E696E673A209F
:100BC000493243207374617274206661696C656494
:100BD000202E2E2E000000000D0A205761726E6933
:100BE0006E673A2057616974696E672041636B20B4
:100BF0006661696C6564202E2E2E000070B5054676
:100C00000C46FFF723FC20B90FA000F0D1F900201B
:100C100070BDD020FFF796FCFFF752FC30B9FFF70C
:100C200041FC12A000F0C4F90020F1E72846FFF7CC
:100C300089FCFFF745FC2046FFF784FCFFF740FCEA
:100C4000FFF730FC0120E3E70D0A205761726E695F
:100C50006E673A2049324320737461727420666172
:100C6000696C6564202E2E2E000000000D0A2057AE
:100C700061726E696E673A2057616974696E6720A8
:100C800041636B206661696C6564202E2E2E000026
:100C90007047000010B51348006840F0010011498A
:100CA000086008464068104908400E4948600846F8
:100CB00000680E4908400B4908600846006820F4A7
:100CC000802008600846406820F4FE0048604FF429
:100CD0001F008860FFF7CBFE4FF0006004490860FA
:100CE00010BD0000001002400000FFF8FFFFF6FEFC
:100CF00008ED00E010B540F22551064800F06DF80F
:100D000038B1044800F024F9C4B22146014800F08B
:100D10002AF910BD0038014021B1828942F4005205
:100D2000828104E082894DF6FF731A408281704708
:100D300010B586B0044601210520FFF71BFE0121F6
:100D40008803FFF717FE4FF40070ADF81400182069
:100D50008DF8170003208DF8160005A91648FFF737
:100D60000CFA4FF48060ADF8140004208DF81700E1
:100D700005A91148FFF701FA01940020ADF8080019
:100D8000ADF80A00ADF80C00ADF810000C20ADF87D
:100D90000E0001A9094800F06FF8FFF792FD01224B
:100DA00040F22551054800F042F801210348FFF7C1
:100DB000B3FF06B010BD000000080140003801403C
:100DC00002460020B1F5007F00D100BF13880B4020
:100DD0000BB1012000E00020704770B502460024EE
:100DE00000230025002040F66A16B14200D100BF62
:100DF000C1F3421501F01F03012606FA03F3012D8A
:100E000002D19689334006E0022D02D1168A334082
:100E100001E0968A33400C12012606FA04F4168883
:100E2000344013B10CB1012000E0002070BDF0B5DA
:100E30000346002400260025002040F66A17B94228
:100E400000D100BF1846C1F3421401F01F0601276C
:100E500007FA06F5012C01D10C3004E0022C01D177
:100E6000103000E014301AB107682F43076002E029
:100E70000768AF430760F0BD2DE9F04786B005462F
:100E80000E460024A24600BFA1460027B08900B14B
:100E900000BF2F462C8A4CF6FF700440F0880443B4
:100EA0002C82AC894EF6F3100440B0883189084397
:100EB000718908430443AC81AC8A4FF6FF4004407B
:100EC000B0890443AC8201A8FFF764FD1F48874244
:100ED00002D1DDF810A001E0DDF80CA0A88900F433
:100EE000004040B10AEBCA0000EB0A10316849002B
:100EF000B0FBF1F807E00AEBCA0000EB0A1031681A
:100F00008900B0FBF1F86420B8FBF0F0040120097F
:100F1000642101FB1089A88900F4004040B132200F
:100F200000EBC900B0FBF1F000F00700044308E05B
:100F3000322000EB09106421B0FBF1F000F00F004B
:100F400004432C8106B0BDE8F08700000038014062
:100F500001468888C0F308007047C1F30802828008
:100F6000704700BFFEE770B504460D46294620468F
:100F7000FFF7F3FF00BF80212046FFF721FF002885
:100F8000F9D070BD70B506460C46002500BF615D06
:100F90003046FFF7E8FF6D1C605D0028F7D100BF09
:100FA00040213046FFF70CFF0028F9D070BD00004B
:100FB0000FB4054B10B503A9044A029800F018F8C5
:100FC00010BC5DF814FB00005D1100081400002047
:100FD00002E008C8121F08C1002AFAD17047704702
:100FE000002001E001C1121F002AFBD17047000060
:100FF0002DE9FF4F89B09B460446002506E02528D1
:101000000BD05A460B999047641C6D1C2078002821
:10101000F5D10DB02846BDE8F08F0027B846012273
:10102000474900E0074314F8013F203B02FA03F070
:101030000842F7D120782E2819D114F8010F47F073
:1010400004072A280ED06FF02F022078A0F130017B
:1010500009290CD808EB880102EB410100EB0108DB
:10106000641CF2E70A98641C50F8048B0A902078FC
:101070000028CED0642808D0692806D075281ED054
:101080005A460B9990476D1C58E00A994FF00A098F
:1010900001C90A91002802DA40422D2102E03905F7
:1010A00004D52B218DF82010012103E0F90704D08D
:1010B0002021F7E78A4608AE0DE00021FAE70A99F9
:1010C0004FF00A0901C90A91F7E74946FFF72AF8E4
:1010D000303106F8011D0028F7D1ADEB060000F114
:1010E0002009780701D44FF00108C84502DDA8EBBC
:1010F000090000E000208046002706E008A85A46C4
:10110000C05D0B9990476D1C7F1C5745F6DB04E0D2
:1011100030205A460B9990476D1CB8F10001A8F198
:101120000108F5DC05E016F8010B5A460B999047CB
:101130006D1CB9F10001A9F10109F4DC641C65E73B
:1011400009280100002100E0491C8142FCD37047BE
:10115000002100E0491C8142FCD3704770B5044671
:101160000D46E1B20548FFF7F8FE00BF80210348B5
:10117000FFF726FE0028F9D0204670BD0038014058
:10118000FFF770FA0820154908604FF4E130FFF7C7
:10119000CFFD13A0FFF70CFF1FA12A48FFF7F2FEB7
:1011A000FFF7C0F8FFF7F2F917E020200B49091FFD
:1011B00008602548FFF7C6FF4FF400502349086137
:1011C0004861FFF72FFBFFF787FAFFF7A9FA202006
:1011D000024908601C48FFF7B5FFE6E7140C014020
:1011E0000D0A202F2F2F2F2F2F2F2F2F2F2F2F2F65
:1011F0002F2F2044524F4E4520204D4552435552EB
:1012000059202F2F2F2F2F2F2F2F2F2F2F2F2F2FD3
:101210002F2F2F2F2F0000000D0A2044726F6E65B4
:10122000204D657263757279205553415254205395
:10123000746172742052756E6E696E67202E2E2E48
:101240002E200A0000380140FFFF0F00001001406F
:10125000701200080000002018000000D00F0008E5
:10126000881200081800002058040000E00F000851
:10127000000000000102030401020304060708093C
:08128000020406080000000052
:04000005080000ED02
:00000001FF
