:020000040800F2
:1000000010050020010100086D130008F50D00081F
:1000100069130008A10A0008FF240008000000007E
:10002000000000000000000000000000D11A0008DD
:10003000450C000800000000F9160008491D0008E2
:100040001B0100081B0100081B0100081B01000820
:100050001B0100081B0100081B0100081B01000810
:100060001B0100081B0100081B0100081B01000800
:100070001B0100081B0100081B0100081B010008F0
:100080001B0100081B0100081B0100081B010008E0
:100090001B0100081B0100081B0100081B010008D0
:1000A0001B0100081B0100081B0100081B010008C0
:1000B0001B0100087D1E00081B0100081B01000831
:1000C0001B0100081B0100081B0100081B010008A0
:1000D0001B010008912200081B0100081B010008F9
:1000E0001B0100081B0100081B010008DFF80CD0F1
:1000F00000F018FA004800474D2E000810050020B7
:100100000648804706480047FEE7FEE7FEE7FEE7B1
:10011000FEE7FEE7FEE7FEE7FEE7FEE74D1D00080F
:10012000ED00000830B50B460146002020220124D6
:1001300009E021FA02F59D4205D303FA02F5491BB5
:1001400004FA02F52844151EA2F10102F1DC30BDCB
:100150002DE9F05F0546002092469B4688460646FC
:10016000814640241BE0284641464746224600F08F
:10017000FAF953465A46C01A914110D3114618460F
:10018000224600F0E1F92D1A67EB01084F4622469E
:100190000120002100F0D8F917EB00094E41201E84
:1001A000A4F10104DFDC484631462A464346BDE857
:1001B000F09F2DE9FE4F804681EA0300C00F0C46F8
:1001C000009021F0004123F00045B8EB0200A94166
:1001D00005D24046214690461C460B46024623F077
:1001E0000040104347D0270DC7F30A00C3F30A515C
:1001F0000290401A019040286BDAC3F3130040F4D8
:10020000801B0098924620B10023D2EB030A63EBD7
:100210000B0B01985946C0F14002504600F094F98A
:1002200006460D4650465946019A00F0ACF910EBCF
:1002300008006141002487EA115284EAE7731A43F7
:1002400040D0009A62B3019A012A4FEA075215DCA6
:10025000001B61EB02014FF0004202EA0752CDE9B8
:100260000042001C41F5801132462B4600F0ACF9EB
:1002700003B0BDE8F08F40462146F9E7001B61EB73
:100280000201001C41F5801300185B412018A2F503
:10029000001747EB030140EAD570B6196D4111E034
:1002A0006D084FEA360645EAC0754FEA0752001B53
:1002B00061EB0201001C41F5801149084FEA300052
:1002C0000019514132462B4603B0BDE8F04F00F013
:1002D0006CB90098012240000023D0EB020263EBCE
:1002E000E073009821464FEAE074B8EB000061EB40
:1002F0000401E9E783F000435BE781F0004158E740
:100300002DE9FE4F81EA030404F0004421F000418E
:1003100000944FF0000B23F0004350EA01045ED03C
:1003200052EA03045BD0C3F30A54C1F30A552C44C8
:10033000A4F2F3340194A0FB0254C1F3130141F47D
:100340008011C3F3130343F4801301FB024400FB49
:10035000034E840A970A44EA815447EA8357A4FB70
:10036000076802958D0A05FB07854FEA932C04FB6D
:100370000C542705029D4FEA065847EA1637B5EB9D
:1003800008056EEB070C870E920E47EA811742EACA
:100390008312A7FB0201B6EB0B0164EB00042B0DEB
:1003A00043EA0C335E1844EB1C50DA465146E7FB37
:1003B0000201C5F313044FEA0B3343EA14534FEA27
:1003C0000432019C43EA0603A4F10C040294009C4D
:1003D000CDE900B400F0F8F803B0BDE8F08F0020DC
:1003E0000146F9E72DE9F04D81EA030404F0004BE2
:1003F00021F0004514464FF0000A23F0004150EA76
:10040000050220D054EA01021DD0C5F30A57024666
:10041000C5F31303C1F31300C1F30A5640F480156A
:1004200043F48013A7EB0608101BD64608F2FD38EC
:1004300073EB050002D308F1010801E092185B415B
:10044000B8F1000F03DA00200146BDE8F08D00206E
:100450004FF48011064684460EE0171B73EB050728
:1004600005D3121B63EB050306434CEA010C490854
:100470004FEA300092185B4150EA0107EDD152EA91
:10048000030012D082EA040083EA0501084305D084
:10049000101BAB4106D20122002306E000224FF0E0
:1004A000004302E06FF0010253101AEB06004CEB20
:1004B000085110EB0A0041EB0B01BDE8F04D00F0D4
:1004C00074B8C1F30A52C1F3130140F2FF3341F48F
:1004D00080119A4202DA00200146704740F233430D
:1004E0009A42A2F2334202DC524200F03CB800F0E1
:1004F0002BB8000030B5041E71F1000404DB4FF08E
:100500000044404264EB0101141E73F1000405DB5A
:100510001C464FF00043524263EB0403994208BF6C
:10052000904230BD064C074D06E0E06840F0010304
:1005300094E8070098471034AC42F6D3FFF7DAFD91
:10054000082F0008282F0008202A04DB203A00FA90
:1005500002F1002070479140C2F1200320FA03F31A
:10056000194390407047202A04DB203A21FA02F018
:100570000021704721FA02F3D040C2F120029140DD
:10058000084319467047202A06DBCB17203A41FA68
:1005900002F043EAE07306E041FA02F3D040C2F110
:1005A0002002914008431946704710B5141E73F19C
:1005B000000408DA401C41F1000192185B411A4323
:1005C00001D120F0010010BD2DE9F04D92469B466F
:1005D00011B1B1FA81F202E0B0FA80F22032904615
:1005E000FFF7B2FF04460F4640EA0A0041EA0B015A
:1005F00053465A46084313D0114653EA010019D016
:10060000C8F140025046FFF7AEFF05460E46504681
:1006100059464246FFF798FF084305D0012004E001
:1006200020463946BDE8F08D0020054346EAE076D5
:100630002C4337430A986305E40AA0EB0800002224
:10064000FD0A44EA47540A3002D500200146E9E792
:10065000010510196941DDE9084500196941BDE846
:10066000F04DA2E708B50121084601F053F8012139
:100670004FF4027001F06EF84FF4004001F03EF8C4
:100680000220ADF8000000208DF803006946024802
:1006900000F0D9FA08BD0000000C014000B591B08F
:1006A000374800F00BFA374806903748079000208B
:1006B00008902020099000200A9080200B90C00014
:1006C0000C900D9020200E9000020F9000201090B2
:1006D00006A92B4800F098FA0121294800F0E2F918
:1006E00028484C3800F068F8012000F041F900205B
:1006F000019001208DF808008DF809004FF460206A
:1007000003900020049020208DF8140001A91D48BA
:100710004C3800F093F807230122092119484C387E
:1007200000F0B4F807230222112116484C3800F0DB
:10073000ADF8012113484C3800F033F8012111487D
:100740004C3800F023F80F484C3800F0FBF800BF9D
:100750000C484C3800F068F80028F9D109484C38AA
:1007600000F000F900BF07484C3800F053F80028AB
:10077000F9D1012103484C3800F0E9F811B000BD6F
:10078000080002404C2401407800002021B182681A
:1007900042F00102826003E0826822F0010282607E
:1007A000704721B1826842F48072826003E08268FF
:1007B00022F480728260704710B504461248844269
:1007C00008D10121401500F0D5FF0021601500F08F
:1007D000D1FF17E00D48844208D10121001500F037
:1007E000C9FF0021201500F0C5FF0BE00848844236
:1007F00008D10121C80300F0BDFF00214FF40040E3
:1008000000F0B8FF10BD00000024014000280140A6
:10081000003C0140014600208A6802F004020AB14F
:10082000012000E000207047014600208A6802F0A5
:1008300008020AB1012000E00020704730B50246EE
:100840000020002350680F4C20400D790C6844EACA
:1008500005242043506090680B4C2040D1E902549D
:100860002C434D7944EA450420439060D06A20F43B
:1008700070000C7C641EE4B2234340EA0350D06253
:1008800030BD0000FFFEF0FFFDF7F1FFF0B50446BC
:100890000D4600200021092D11DDE068A5F10A06B2
:1008A00006EB4607072606FA07F18843A5F10A0674
:1008B00006EB460603FA06F10843E0600CE0206907
:1008C00005EB4507072606FA07F1884305EB4506C1
:1008D00003FA06F108432061072A0FDA606B561EFF
:1008E00006EB86071F2606FA07F18843561E06EB1D
:1008F000860605FA06F10843606322E00D2A0FDA46
:10090000206BD61F06EB86071F2606FA07F18843E1
:10091000D61F06EB860605FA06F10843206310E0B1
:10092000E06AA2F10D0606EB86071F2606FA07F11C
:100930008843A2F10D0606EB860605FA06F1084388
:10094000E062F0BD816841F008018160704721B12B
:10095000826842F4A002826003E0826822F4A0026E
:1009600082607047816841F0040181607047000037
:1009700030B10749096841F40001054A116005E0FA
:100980000349096821F40001014A11607047000021
:100990000824014010B5FFF765FEFFF77FFE10BD8C
:1009A0003EB504460121022000F0C4FE0F4890FB32
:1009B000F4F080B2ADF804004720ADF8000000204C
:1009C000ADF80600ADF802006946094801F00EFCDA
:1009D0000121074801F096FA01221146044801F06E
:1009E000A0FA0121024801F090FA3EBD40420F00FA
:1009F0000004004008B54FF4E06000F073FE1D20D5
:100A00008DF8000000208DF8010003208DF8020011
:100A100001208DF80300684600F02CFE08BD0000A0
:100A200038B54FF4E13001F051FC02F047FA0446CA
:100A300010480068234610A200900E480168032069
:100A400002F042FA4FF47A7001F054FA00F0A6FB7B
:100A5000FFF7A0FF00F0E0FB0121282000F03EFF9F
:100A600000BF00F019FB0028FBD001200B490870E3
:100A700038BD0000200000204920282564292025B9
:100A8000733A2044726F6E65204D6572637572799A
:100A9000205374617274202E2E2E0A003C00002018
:100AA00000BFFEE721B1026842F00102026004E0EB
:100AB00002684FF6FE731A400260704701684FF6F5
:100AC000FE72114001600021016041608160C160DF
:100AD0004B49884208D14A490839496841F00F0119
:100AE000474A083A51608AE045491431884208D1A2
:100AF00043490839496841F0F001414A083A5160D8
:100B00007DE03F492831884208D13D49083949688C
:100B100041F470613A4A083A516070E038493C311A
:100B2000884208D136490839496841F47041344A4D
:100B3000083A516063E032495031884208D1304967
:100B40000839496841F470212D4A083A516056E04D
:100B50002B496431884208D129490839496841F450
:100B60007001274A083A516049E0254978318842A6
:100B700008D123490839496841F07061204A083A90
:100B800051603CE01F49884206D1011F096841F0CD
:100B90000F01021F116032E01A491431884208D156
:100BA0001849091F096841F0F001164A121F116027
:100BB00025E014492831884208D11249091F0968E3
:100BC00041F470610F4A121F116018E00D493C3169
:100BD000884208D10B49091F096841F47041094A4C
:100BE000121F11600BE007495031884207D10549B7
:100BF000091F096841F47021024A121F11607047F1
:100C0000080002400804024010B50022026847F6BE
:100C1000F0739A430C6A8B6823430C6923434C6935
:100C200023438C692343CC6923434C6A23438C6A56
:100C300023431A430260CB6843600B6883604B68B0
:100C4000C36010BD70472DE9F04102460025002623
:100C5000002000230024002791F803C00CF00F05AA
:100C600091F803C00CF0100CBCF1000F03D091F808
:100C700002C04CEA050591F800C0BCF1000F31D06C
:100C8000146800202BE04FF0010C0CFA00F3B1F8CF
:100C900000C00CEA03069E4220D183004FF00F0CE7
:100CA0000CFA03F7BC4305FA03FC4CEA040491F880
:100CB00003C0BCF1280F06D14FF0010C0CFA00FC68
:100CC000C2F814C00AE091F803C0BCF1480F05D186
:100CD0004FF0010C0CFA00FCC2F810C0401C0828B0
:100CE000D1D31460B1F800C0BCF1FF0F34DD5468FB
:100CF00000202EE000F1080C4FF0010808FA0CF378
:100D0000B1F800C00CEA03069E4221D183004FF0E7
:100D10000F0C0CFA03F7BC4305FA03FC4CEA04047D
:100D200091F803C0BCF1280F05D100F1080C08FAB6
:100D30000CF8C2F8148091F803C0BCF1480F07D139
:100D400000F1080C4FF0010808FA0CF8C2F8108006
:100D5000401C0828CED35460BDE8F081F0B50A46A7
:100D6000002300240021002500F00046B6F1004FCA
:100D700002D11D4EF16901E01B4E7168C0F30345BD
:100D800083B200F44016B6F5401F08D121F070611F
:100D9000154E766826F07066134F7E6012E000F400
:100DA0008016B6F5801F06D1032606FA05F4A14386
:100DB00041F0706106E0460D360103FA06F6B143D4
:100DC00041F0706122B1460D360103FA06F6314357
:100DD00000F00046B6F1004F02D1034EF16101E090
:100DE000014E7160F0BD000000000140416170479C
:100DF0000161704700BFFEE71CB50121082000F02B
:100E0000A9FC2020ADF8040003208DF80600102076
:100E10008DF8070001A91348FFF715FF4FF4806014
:100E2000ADF8040014208DF8070001A90D48FFF764
:100E30000AFF4FF40060ADF8040014208DF807009D
:100E400001A90848FFF7FFFE02F038F804460648FB
:100E50000068234605A2009003480168032002F0C1
:100E600033F81CBD000C0140280000204920282533
:100E700064292025733A2049324320496E697469F8
:100E8000616C69736174696F6E2066696E697368FD
:100E90006564202E2E2E0A004FF4806009490860F8
:100EA00000BF4FF400600749086000BF4FF4806046
:100EB0000449091F086000BF4FF4806001490860C1
:100EC00000BF7047140C01404FF480600449086073
:100ED0004000091F086040100860091D0860704745
:100EE000140C0140082100200A02134B1A6000BFB5
:100EF00016E04FF48062104B1B1D1A6000BF00BF4C
:100F00004FF480620C4B1A6000BF4206100E00BF07
:100F1000094A083A126802F400620AB140F001007E
:100F20000A00A1F10103D9B2E3D14FF48062024B70
:100F30001B1D1A6070470000100C01404FF48060C8
:100F4000134908604000091F08604010086000BF96
:100F50000F480C38006808B9012000E0002000F4B8
:100F6000006008B1002070474FF400600849086035
:100F700000BF07480C38006800F4006008B100208A
:100F8000F1E74FF40060024908600120EBE7000040
:100F9000140C01404FF48060044908604000086070
:100FA0004010091F0860400008607047140C0140A1
:100FB00038B54FF480601849086000BF4FF40060F6
:100FC0001549091F086000BF4FF480601249091FCE
:100FD000086000BF10480C38006800F4006098B149
:100FE0004FF480600C49086000BF01F067FF0446C1
:100FF0000A48006823460AA20090084801680220B7
:1010000001F062FF002038BD4FF4806002490860A3
:1010100000BF0120F7E70000140C01402800002069
:101020005720282564292025733A2049324320720D
:10103000656365697665204E61636B206F72206E13
:101040006F20526573706F6E64696E670A000000EE
:10105000082115E04FF480620E4B1A6000F0800208
:101060001AB1DA141B1F1A6003E04FF40062094B37
:101070001A604206100E4FF48062064B1B1F1A6066
:101080000A00A1F10103D9B2E4D14FF48062014B0F
:101090001A607047140C014038B5FFF7ADFE40F6FA
:1010A000FF7001F0BBFE752000F088FD68280CD0B1
:1010B000752000F083FD044621461FA001F030FAA0
:1010C00022A001F02DFA002038BD00216B2000F095
:1010D000D7FD4FF4FA6001F0A1FE0021192000F0C5
:1010E000CFFD4FF4FA6001F099FE00211A2000F0C4
:1010F000C7FD4FF4FA6001F091FE18211B2000F0AB
:10110000BFFD4FF4FA6001F089FE1F211C2000F0A2
:10111000B7FD4FF4FA6001F081FE01F0CFFE054605
:10112000114800682B4611A200900F480168032067
:1011300001F0CAFE0120C7E70D0A2057484F5F4162
:101140004D5F49203D202564000000002C4D505586
:1011500036303530206F70656E206661696C65646D
:10116000202E2E2E200D0A002800002049202825A0
:1011700064292025733A204D5055363035302049AA
:101180006E697469616C69736174696F6E205375FF
:10119000636365737366756C0A00000008B501210E
:1011A000082000F0D7FA0121102000F0D3FA012125
:1011B000084600F0CFFA01211348FFF7CFFD0121C7
:1011C0001248FFF7CBFD0820ADF8000010208DF885
:1011D000030003208DF8020069460D48FFF733FD38
:1011E0004FF40050ADF8000010208DF803000320EC
:1011F0008DF8020069460748FFF725FD08200449DD
:101200001431086008BD0000000430000002300006
:10121000000C01400010014038B500F0C7FD00F09F
:10122000DBFD01F04BFE044605480068234605A29D
:10123000009003480168032001F046FE38BD00001D
:10124000240000204920282564292025733A2049BC
:101250006E697469616C69736174696F6E20666927
:101260006E6973686564202E2E2E0A0000201AE035
:1012700041000E4A52F821100D4A42F82010114642
:1012800051F82010090242F82010114651F8202090
:101290004100491C054B53F821101144044A42F8FF
:1012A0002010411CC8B20828E2DB7047B8000020BB
:1012B000F000002038B50E24FFF740FE70B901F0B1
:1012C000FDFD05461C4800682B461CA200901A48EC
:1012D0000168022001F0F8FD002038BDD020FFF7A2
:1012E000B7FEFFF765FE18B9FFF754FE0020F4E7DC
:1012F0003B20FFF7ADFEFFF75BFEFFF71FFED1209F
:10130000FFF7A6FEFFF754FE08E0FFF7EBFDC4F180
:101310000D01144A42F82100FFF7BEFD601EC0B265
:101320000400F2D1FFF7DEFD0E494863FFF7CCFD64
:10133000FFF730FE0120D0E72800002057202825A5
:1013400064292025733A205761726E696E673A20CE
:10135000493243207374617274206661696C6564FC
:101360000A000000B800002000BFFEE77047000040
:101370003EB505221A49302000F030F9052201A9B6
:10138000102000F0C5F8002408E001A8005D144911
:10139000095D884200D003E0601CC4B2052CF4DB78
:1013A00000BF052C0DD101F089FD05460D480068F0
:1013B0002B460DA200900B480168032001F084FD2C
:1013C0000CE001F07BFD0546064800682B4610A2A4
:1013D000009004480168022001F076FD3EBD000047
:1013E0002C000020380000204920282564292025D1
:1013F000733A20496E697469616C69736174696FCD
:101400006E205375636365737366756C0A00000024
:101410005720282564292025733A204E524632341D
:101420004C303120496E697469616C69736174690B
:101430006F6E204661696C65640A000070B50546F0
:101440000C4604211F48FFF7D1FCFF21E12000F0EA
:10145000E5F8FF21E22000F0E1F805221A493020EA
:1014600000F0BCF8052219492A2000F0B7F8012144
:10147000212000F0D3F80121222000F0CFF81A211A
:10148000242000F0CBF82946252000F0C7F82021C1
:10149000312000F0C3F80F21262000F0BFF8012C06
:1014A00004D10E21202000F0B9F805E0022C03D170
:1014B0000F21202000F0B2F804210248FFF798FC29
:1014C00070BD0000000C01402C0000203100002005
:1014D00010B504210548FFF789FC0F21202000F0FA
:1014E0009DF804210148FFF783FC10BD000C01406A
:1014F00010B504210548FFF779FC0E21202000F0EB
:101500008DF804210148FFF773FC10BD000C014069
:101510002DE9F04107460D46164610210B48FFF70E
:1015200065FC384600F07AFA8046002405E0002089
:1015300000F074FA2855601CC4B2B442F7DB1021E5
:101540000248FFF755FC4046BDE8F0810008014025
:1015500070B5044610210848FFF748FC204600F00B
:101560005DFA002000F05AFA054610210248FFF704
:101570003FFC284670BD00000008014070B50546DC
:101580000E46FFF7B5FF04211348FFF72FFC324644
:101590002946A02000F022F804210F48FFF728FC7C
:1015A00000BF0D480830006800F001000028F8D1A5
:1015B0000720FFF7CDFF044604F0100030B104F01F
:1015C000010018B1FF21E12000F028F804F020000C
:1015D00008B1FFF77DFF70BD000C01402DE9F0411F
:1015E00007460D46164610210B48FFF7FFFB38460D
:1015F00000F014FA8046002404E0285D00F00EFAA2
:10160000601CC4B2B442F8DB10210348FFF7F0FBC2
:101610004046BDE8F08100000008014070B5054675
:101620000C4610210748FFF7E1FB284600F0F6F9C9
:101630000646204600F0F2F910210248FFF7D8FBD9
:10164000304670BD0008014008B54FF4A06000F0BE
:1016500049F825208DF8000001208DF801000020B8
:101660008DF8020001208DF80300684600F002F8B2
:1016700008BD000070B5002100230F22C47804B318
:10168000154C246804F4E064C4F5E064210AC1F157
:101690000403CA40447804FA03F1847814402143D7
:1016A00009010E4C0678A155047804F01F050124A9
:1016B000AC4005786D11AD0005F1E025C5F800419D
:1016C00009E0047804F01F050124AC40044D0678BD
:1016D000761145F8264070BD0CED00E000E400E016
:1016E00080E100E002490143024A116070470000B6
:1016F0000000FA050CED00E07047000001460020F4
:10170000034A506820F4404008435060704700008E
:101710000010024029B1064A52690243044B5A6143
:1017200004E0034A52698243014B5A61704700004A
:101730000010024029B1064AD2690243044BDA6123
:1017400004E0034AD2698243014BDA61704700002A
:101750000010024029B1064A92690243044B9A6183
:1017600004E0034A92698243014B9A61704700008A
:101770000010024029B1064AD2680243044BDA60E5
:1017800004E0034AD2688243014BDA6070470000EC
:101790000010024030B500210022002400232D4D0E
:1017A0006D6805F00C0121B1042905D0082923D169
:1017B00005E0294D056022E0284D05601FE0254D1C
:1017C0006D6805F47012234D6D6805F480340225B0
:1017D00005EB92421CB9224D554305600BE01D4DAF
:1017E0006D6805F400351DB11B4D5543056002E0E1
:1017F0001A4D5543056002E0174D056000BF00BF5C
:10180000144D6D6805F0F0010909164D6B5C056813
:10181000DD4045600F4D6D6805F4E061090A114D2A
:101820006B5C4568DD4085600A4D6D6805F460516C
:10183000C90A0C4D6B5C4568DD40C560054D6D689F
:1018400005F44041890B084D6B5CC568B5FBF3F5A9
:10185000056130BD0010024000127A000024F4003F
:1018600000093D00000000201000002021B1028886
:1018700042F04002028004E002884FF6BF731A4033
:10188000028070470246002013890B400BB10120F3
:1018900000E00020704701468889704781817047C9
:1018A00010B50022028802F441520B884C88234371
:1018B0008C882343CC8823430C8923434C892343BE
:1018C0008C892343CC8923431A430280838B4FF2B4
:1018D000FF74234083830B8A038210BD70B50446D6
:1018E0000D4600F007F829462046FFF7A7FDFFF751
:1018F0003FFD70BD10B588B001210420FFF72AFF1D
:1019000001210820FFF726FF01210803FFF722FF2E
:10191000E020ADF8080001208DF80A0018208DF8AD
:101920000B0002A92F48FFF78EF90420ADF808003C
:1019300001208DF80A0010208DF80B0002A92A481A
:10194000FFF781F91020ADF8080001208DF80A009A
:1019500010208DF80B0002A92248FFF774F901202E
:10196000ADF8080003208DF80A0048208DF80B0020
:1019700002A91D48FFF767F910211A48FFF738FA46
:101980000020ADF80C004FF48270ADF80E0000207E
:10199000ADF81000ADF81200ADF814004FF400706F
:1019A000ADF816001020ADF818000020ADF81A00B0
:1019B0000720ADF81C0003A90C48FFF771FF0121B7
:1019C0000A48FFF753FF01F079FA04460848006817
:1019D000234608A2009006480168032001F074FA2B
:1019E00008B010BD00080140000C0140003001406B
:1019F000380000204920282564292025733A2053E7
:101A0000504920496E697469616C69736174696FCA
:101A10006E2066696E69736865640A0070B5044675
:101A20004FF4805507E02800A5F1010503D100F02F
:101A300023F8C0B270BD02210E48FFF723FF002833
:101A4000F1D021460B48FFF729FF08E02800A5F157
:101A5000010504D1012000F00FF8C0B2EAE701212E
:101A60000448FFF70FFF0028F0D00248FFF713FFEC
:101A7000C0B2DFE7003001407CB5044601F01EFA39
:101A80000546064800682B4605A2CDE90004034838
:101A90000168022001F018FA00207CBD3800002007
:101AA0005720282564292025733A20535049207750
:101AB000616974206F76657274696D6521657272F3
:101AC0006F72436F6465203D2025640A00000000AA
:101AD000704710B500F002F810BD00000CB50020F2
:101AE000019000903348006840F48030314908602C
:101AF00000BF3048006800F4003000900198401C9E
:101B00000190009818B90198B0F5A06FF1D129485B
:101B1000006800F4003010B10120009001E00020C6
:101B200000900098012843D12348006840F010003D
:101B3000214908600846006820F003000860084654
:101B4000006840F0020008601A484068194948607F
:101B50000846406848600846406840F48060486035
:101B60000846406820F47C1048600846406840F40D
:101B7000F81048600846006840F08070086000BFB8
:101B80000C48006800F000700028F9D0094840684F
:101B900020F00300074948600846406840F0020012
:101BA000486000BF0348406800F00C000828F9D1E5
:101BB0000CBD00000010024000200240F8B50446B1
:101BC000FFF7BCF920B919A000F0AAFC0020F8BD6D
:101BD000D020FFF73DFAFFF7EBF980B9FFF7DAF90C
:101BE00001F06CF906461A480068334619A20090C5
:101BF00017480168022001F067F90020E7E7204656
:101C0000FFF726FAFFF7D4F9FFF798F900BFD120C4
:101C1000FFF71EFAFFF7CCF9FFF764F9054600BF9E
:101C2000FFF752F9FFF7B6F92846D0E70D0A20571B
:101C300061726E696E673A20493243207374617233
:101C400074206661696C6564202E2E2E00000000F1
:101C5000280000205720282564292025733A205782
:101C600061726E696E673A2057616974696E6720A8
:101C700041636B206661696C6564202E2E2E0A001C
:101C8000F8B505460C46FFF759F970B901F016F999
:101C9000064618480068334617A2009015480168A8
:101CA000022001F011F90020F8BDD020FFF7D0F993
:101CB000FFF77EF980B9FFF76DF901F0FFF80646EE
:101CC0000C480068334616A200900A4801680220BA
:101CD00001F0FAF80020E7E72846FFF7B9F9FFF727
:101CE00067F92046FFF7B4F9FFF762F9FFF752F9F9
:101CF0000120D9E728000020572028256429202525
:101D0000733A205761726E696E673A2049324320F8
:101D10007374617274206661696C65640A00000006
:101D20005720282564292025733A205761726E694F
:101D30006E673A2057616974696E672041636B2052
:101D40006661696C65640A007047000010B513484D
:101D5000006840F0010011490860084640681049D9
:101D600008400E494860084600680E4908400B4983
:101D700008600846006820F4802008600846406833
:101D800020F4FE0048604FF41F008860FFF7A1FEBA
:101D90004FF000600449086010BD000000100240D0
:101DA0000000FFF8FFFFF6FE08ED00E008B5012196
:101DB0000420FFF7CFFC0F20ADF8000018208DF8AD
:101DC000030003208DF8020069460248FEF73BFF3E
:101DD00008BD00000008014000B587B00121084699
:101DE000FFF7A8FC40F2E730ADF814000320ADF88F
:101DF00010000020ADF81600ADF812008DF81800A4
:101E000004A94FF0804000F0F1F96020ADF8000027
:101E10000120ADF802000020ADF80600ADF8080082
:101E20004FF48070ADF80C006946800500F082F830
:101E30000821C80600F0CAF869464FF0804000F05B
:101E4000CFF80821C80600F01DF969464FF0804020
:101E500000F026F90821C80600F072F969464FF033
:101E6000804000F077F90821C80600F0B1F901219F
:101E7000880700F04AF807B000BD00001648008847
:101E800000F0010028B34FF6FE7013490880134894
:101E9000007828B912480068401C11490860704752
:101EA0000F480068401C0E4908600E480068401C3E
:101EB0000C4908600C480068401C0B4908600B483E
:101EC0000068401C0949086009480068401C08492E
:101ED000086000BFE3E70000100400403C00002061
:101EE0004000002044000020480000204C0000205A
:101EF0005000002010B50446FEF77CFD2046FEF79A
:101F00004FFD10BDCA430282704721B1028842F0E2
:101F10000102028004E002884FF6FE731A4002803C
:101F200070471AB183890B43838102E083898B4315
:101F30008381704770B5002400220023058C4FF682
:101F4000FE7635400584028C8388048B4FF68F75AE
:101F50002C40B51E2C400D882C43751E2A400D893F
:101F60002A434D882A43144DA8420BD0134DA84252
:101F700008D0134DA84205D0124DA84202D0124DF0
:101F8000A84213D14FF6F7752A404D892A434FF6E0
:101F9000FB752A408D882A434FF6FF652B404FF68C
:101FA000FF552B408D892B43CD892B4383800483A0
:101FB000CD888586028470BD002C0140003401402C
:101FC0000040014000440140004801400A46002111
:101FD000018B4FF6F77319401143018370470000DE
:101FE00070B5002400220023058C4FF6EF763540B3
:101FF0000584028C8388048B48F6FF752C404FF6CD
:10200000FF452C400D884FF6FF7606EA05252C4348
:102010004FF6DF752A400D8906EA05152A434D88DB
:1020200006EA05152A43154DA84202D0144DA842D0
:102030001DD14FF67F752A404D894FF6FF7606EA8F
:1020400005152A434FF6BF752A408D8806EA051507
:102050002A434FF6FF352B404FF2FF752B408D89F9
:1020600006EA85052B43CD8906EA85052B43838047
:102070000483CD880587028470BD0000002C0140D8
:10208000003401400A460021018B4FF2FF731940D2
:102090004FF6FF7303EA02231943018370470000E0
:1020A00070B5002400220023058C4FF6FF663540F2
:1020B0000584028C8388848B4FF68F752C404FF6F5
:1020C000FC752C400D882C434FF6FF552A400D8996
:1020D0004FF6FF7606EA05252A434D8806EA0525D0
:1020E0002A43154DA84202D0144DA8421DD14FF2EB
:1020F000FF752A404D894FF6FF7606EA05252A43EB
:102100004FF6FF352A408D8806EA05252A434EF60C
:10211000FF752B404DF6FF752B408D8906EA05159E
:102120002B43CD8906EA05152B4383808483CD8814
:102130008587028470BD0000002C014000340140FE
:102140000A460021818B4FF6F773194011438183B2
:102150007047000070B5002200230024058C4EF665
:10216000FF7635400584038C8488828B48F6FF75A2
:102170002A404FF6FF452A400D884FF6FF7606EAC3
:1021800005252A434DF6FF752B400D8906EA0535D6
:102190002B434D8806EA05352B430B4DA84202D050
:1021A0000A4DA84208D14BF6FF752C408D894FF699
:1021B000FF7606EA85152C4384808283CD88A0F8BB
:1021C0004050038470BD0000002C014000340140E9
:1021D0000A460021818B4FF2FF7319404FF6FF73BF
:1021E00003EA02231943818370470000002202881A
:1021F0001D4B98420ED01D4B98420BD0B0F1804F32
:1022000008D01B4B984205D01A4B984202D01A4B6B
:10221000984204D14FF68F731A404B881A43174BDC
:10222000984207D0164B984204D04FF6FF431A400D
:10223000CB881A4302808B8883850B8803850A4BE1
:1022400098420BD0094B984208D00E4B984205D0CB
:102250000D4B984202D00D4B984201D10B7A038668
:102260000123838270470000002C014000340140AC
:102270000004004000080040000C00400010004036
:10228000001400400040014000440140004801406B
:1022900010B540F22551064800F06DF838B10448F9
:1022A00000F024F9C4B22146014800F02AF910BD1B
:1022B0000038014021B1828942F40052828104E059
:1022C00082894DF6FF731A408281704710B586B03F
:1022D000044601210520FFF73DFA01218803FFF79D
:1022E00039FA4FF40070ADF8140018208DF817007B
:1022F00003208DF8160005A91648FEF7A4FC4FF43C
:102300008060ADF8140004208DF8170005A911486D
:10231000FEF799FC01940020ADF80800ADF80A0022
:10232000ADF80C00ADF810000C20ADF80E0001A9BE
:10233000094800F06FF8FFF787F9012240F22551B4
:10234000054800F042F801210348FFF7B3FF06B04B
:1023500010BD000000080140003801400246002086
:10236000B1F5007F00D100BF13880B400BB10120F5
:1023700000E00020704770B50246002400230025CD
:10238000002040F66A16B14200D100BFC1F34215E9
:1023900001F01F03012606FA03F3012D02D19689ED
:1023A000334006E0022D02D1168A334001E0968ABE
:1023B00033400C12012606FA04F41688344013B197
:1023C0000CB1012000E0002070BDF0B503460024F0
:1023D00000260025002040F66A17B94200D100BF50
:1023E0001846C1F3421401F01F06012707FA06F54B
:1023F000012C01D10C3004E0022C01D1103000E09E
:1024000014301AB107682F43076002E00768AF4332
:102410000760F0BD2DE9F04786B005460E46002462
:10242000A24600BFA1460027B08900B100BF2F46D9
:102430002C8A4CF6FF700440F08804432C82AC894F
:102440004EF6F3100440B08831890843718908437F
:102450000443AC81AC8A4FF6FF400440B08904438A
:10246000AC8201A8FFF796F91F48874202D1DDF838
:1024700010A001E0DDF80CA0A88900F4004040B1F4
:102480000AEBCA0000EB0A1031684900B0FBF1F812
:1024900007E00AEBCA0000EB0A1031688900B0FBC4
:1024A000F1F86420B8FBF0F004012009642101FB7D
:1024B0001089A88900F4004040B1322000EBC90027
:1024C000B0FBF1F000F00700044308E0322000EB1D
:1024D00009106421B0FBF1F000F00F0004432C81DF
:1024E00006B0BDE8F087000000380140014688884A
:1024F000C0F308007047C1F308028280704700BF34
:10250000FEE770B504460D4629462046FFF7F3FF67
:1025100000BF80212046FFF721FF0028F9D070BDC1
:102520000FB4054B10B503A9044A029800F0D2F885
:1025300010BC5DF814FB0000292E00085400002098
:10254000014B024A00F0C6B8292E000854000020B2
:1025500002E008C8121F08C1002AFAD1704770476C
:10256000002001E001C1121F002AFBD170470000CA
:102570002DE9FF5FDDE90220010DDDF838B00243EF
:1025800018D044F61050A1F2FF3141430D140F98BA
:10259000012820D0A5EB0B00401C5FEA000A4FF099
:1025A0000004474EDFF81C91A046504616D5CAF1EC
:1025B000000728E00F98012443A2012808D0002139
:1025C00000980F9BC0E90021C0E90243BDE8FF9FCE
:1025D0006FEA0B01F4E7CBF10000DEE7074612E0FB
:1025E000F80707D02246334640464946FDF788FEA5
:1025F000804689462246334610461946FDF780FE3E
:1026000004460E467F10002FEAD1DDE90201BAF13F
:10261000000F42464B4602DAFDF772FE01E0FDF77D
:10262000E1FE04460E460022284BFDF763FF03D867
:102630004FF0FF30014607E00022254B204631468F
:10264000FDF7B7FDFDF73DFF102409E0002C0ADB84
:102650000A220023FDF77CFD019B30321A55641ECF
:1026600050EA0102F2D1641C019AC4F1110314442E
:102670000F9A012A03D0012208430DD10AE0084332
:1026800004D000204FF0110B0F9080E7A3EB0B0557
:102690006D1E0DE05B4504DD4FF0000205F1010504
:1026A00004E003DA4FF00002A5F10105002AECD0A6
:1026B00000980F99C0E90231C0E9004586E70000A3
:1026C000000024400000F03F300000000000F04314
:1026D0000000E03F2DE9FF4F95B09B468946064636
:1026E00000250FE2252877D100242746F84A01214A
:1026F000059400E0044316F8013F203B01FA03F083
:102700001042F7D130782A2811D06FF02F0330789B
:10271000A0F13002092A16D8059A44F0020402EB0F
:10272000820203EB42021044761C0590EFE759F851
:10273000042B0592002A03DA504244F40054059019
:1027400044F00204761C30782E2816D116F8010FBA
:1027500044F004042A280DD06FF02F023078A0F145
:102760003003092B09D807EB870302EB4303C71893
:10277000761CF3E759F8047B761C30786C280FD070
:1027800006DC4C2817D068280DD06A2814D104E044
:10279000742810D07A280FD10DE044F400140AE018
:1027A00044F4801401E044F440147278824202D16F
:1027B00004F58014761C761C307866280BD013DC68
:1027C000582877D009DC002875D04528F6D046284F
:1027D000F4D047281AD19DE118E0632835D0642849
:1027E00079D0652812D195E1702873D008DC67286C
:1027F000F1D069286FD06E280DD06F2806D1B5E0D2
:1028000073282CD0752875D0782874D05A4617991B
:1028100090476D1C75E1C4F30250022809D00328CB
:102820000DD0D9F8001004280DD00D6009F104096D
:1028300067E1D9F80010EA17C1E90052F6E7D9F8C4
:1028400000100D80F2E70D70F0E719F8041B8DF809
:10285000001000208DF80100EA46012003E059F83D
:1028600004AB4FF0FF3061074FF0000102D40DE0E0
:1028700008F101018846B9420FDA8045F8DB1AF801
:1028800008100029F4D108E008F1010188468142CE
:10289000FADB1AF808100029F6D105985B46A0EB80
:1028A000080721463846179A00F094FA284400EBAE
:1028B000080507E04DE029E10DE01AF8010B5A4642
:1028C00017999047B8F10108F7D25B462146384680
:1028D000179A13E142E00A220092C4F302524FF029
:1028E000000A022A08D059F804CB032A4FEAEC71F7
:1028F0000AD00DE029E02AE009F1070121F00702E2
:10290000F2E802C1914609E00FFA8CFC4FEAEC7143
:10291000042A03D14FFA8CFC4FEAEC71002907DA44
:102920000A460021DCF1000C61EB02012D2202E0DD
:10293000220504D52B228DF80420012203E0E207B2
:1029400001D02022F7E7904659E00A2102E0102248
:102950000DE010214FF0000A00910BE010224FF023
:10296000000A44F004040827009203E008224FF014
:10297000000A0092C4F30252022A05D059F804CB8F
:102980000021032A08D009E009F1070121F007021C
:10299000F2E802C1914605E01FFA8CFC042A01D13D
:1029A0000CF0FF0C4FF00008220728D5702806D045
:1029B000009B83F0100353EA0A0305D00EE0402287
:1029C0008DF80420012208E05CEA010206D03022E2
:1029D0008DF804208DF8050002229046009B83F0BC
:1029E000080353EA0A030AD15CEA010201D1620733
:1029F00005D530228DF804204FF001087F1E58289D
:102A000004D034A003900EA802900DE036A0F9E7A0
:102A100053466046009AFDF79BFB84460398825C10
:102A20000298401E029002705CEA0100F0D1029808
:102A300006A9081A00F1200A600702D524F48034A0
:102A400000E00127574502DDA7EB0A0000E0002067
:102A500000EB0A01009005984144401A0590E003FC
:102A600006D45B462146179A059800F0B3F9054451
:102A7000002706E001A85A46C05D179990476D1CD3
:102A80007F1C4745F6DBE0030CD55B462146179AD1
:102A9000059800F09FF9054404E030205A46179944
:102AA00090476D1C0099481E00900029F5DC08E055
:102AB000029802995A460078491C0291179990474A
:102AC0006D1CBAF10001AAF1010AF1DC65E1000018
:102AD00009280100303132333435363738396162F4
:102AE00063646566000000003031323334353637B8
:102AF00038394142434445460000000000F058F98F
:102B00000544761C307800287FF4ECAD19B02846D7
:102B1000BDE8F08F620700D4062709F1070222F012
:102B2000070CFCE80223E14603F000485FEA080CCA
:102B300002D00FF2702C0DE05FEA045C02D50FF2B8
:102B4000682C07E05FEAC47C02D00FF2602C01E041
:102B5000AFF2700C4FF0FF3823F00043CDF850C0B7
:102B600065280CD006DC452809D046281DD047280A
:102B70003DD13DE0662818D067287ED138E000219D
:102B8000112F01DB112000E0781CCDE9000106A91E
:102B90000EA8FFF7EDFCDDE90F010E9A039100216D
:102BA000009207F1010A04914DE04FF000400097B8
:102BB000CDE9011006A90EA8FFF7DAFCDDE90F0246
:102BC00003920E9B11990022DDF80CA00093049251
:102BD00011B9791C00EB010AB7EB0A0004D4C0F16B
:102BE000FF3007F1010A0490AAEB0700019044E0CE
:102BF000012F00DA01270021112F01DD112000E053
:102C00003846CDE9000106A90EA8FFF7B1FCDDE9C1
:102C10000F010E9A0391002104910092BA462107F8
:102C20000CD40399514500DA8A46BAF1010F05DD4B
:102C3000009AAAF10101515C302908D0B84202DAA9
:102C400010F1040F06DA0121CDE9011015E0AAF117
:102C50000101E9E7002805DC049901440491AAEB8D
:102C6000000102E0411C514500DD8A460499401AEA
:102C7000401C01904FF000400290200704D40198BE
:102C8000504501DBCDF8048000208DF84F000298FC
:102C90000DF14F07B0F1004F25D02B200E90029878
:102CA0004FF0020800280CDA404202902D200E90CE
:102CB00007E00A210298FDF735FA3031029007F853
:102CC000011DB8F10001A8F10108F2DC029800280A
:102CD000EFD1791E0E980870307800F0200040F097
:102CE000450007F8020D12A8C01B00F10708149850
:102CF000007800B1012000EB0A01019801EBE071BE
:102D000005984144401A401E0590E00306D45B46F6
:102D10002146179A059800F05DF80544149800784C
:102D200018B15A46179990476D1CE00324D55B46AD
:102D30002146179A059800F04DF805441CE00498C8
:102D4000002807DBDDE90301884203DD0098405CD1
:102D5000179901E0179930205A469047049805F1D9
:102D60000105401C04900198401E019004D12E20C2
:102D70005A46179990476D1CBAF10001AAF1010A51
:102D8000DDDC05E017F8010B5A46179990476D1CDA
:102D9000B8F10001A8F10108F4DC5B462146179A5E
:102DA0000598ABE62D0000002B000000200000007D
:102DB0002DE9F041044600251E461746880404D438
:102DC00005E039462020B0476D1C641EF9D5284621
:102DD000BDE8F0812DE9F041044600251E469046ED
:102DE000C80301D5302700E02027880404D505E07A
:102DF00041463846B0476D1C641EF9D52846BDE8EB
:102E0000F081002107E0002200E0521C42F234135E
:102E10009A42FAD3491C8142F5D37047002100E061
:102E2000491C8142FCD3704770B504460D46E1B29F
:102E30000548FFF760FB00BF80210348FFF78EFACB
:102E40000028F9D0204670BD0038014008B5FDF7D4
:102E5000E7FD22E04FF4005010490861FEF72AFA1E
:102E6000FEF704FA20210E48FEF788FBC820FFF782
:102E7000C8FF00F023F804460A48006823460AA267
:102E8000009008480168032000F01EF84FF400503D
:102E900002494861C820FFF7B4FFDBE7001001409A
:102EA00058000020200000204920282564292025E2
:102EB000733A20544553540A00000000014800684A
:102EC00070470000400000200FB438B504460D469E
:102ED00007A8009000990698FFF732FB00200090A9
:102EE00038BC5DF814FB00006D61696E00000000E5
:102EF00050574D004D505536303530004E52463209
:102F0000344C303100000000282F00080000002061
:102F10005800000050250008802F000858000020AD
:102F2000B80400006025000800000000010203044E
:102F30000102030406070809020406081A3B5C7D27
:102F40009E1A3B5C7D9E0000E82E0008F02E0008D3
:102F5000F42E00081A3B5C7D9E1A3B5C7D9E0000AF
:102F6000FC2E00080000000000000000000000002F
:102F70000000000000000000000000000000000051
:04000005080000ED02
:00000001FF
