:020000040800F2
:10000000D804002001010008690F000885090008D4
:10001000650F0008310600088B1F00080000000073
:100020000000000000000000000000005116000861
:10003000D507000800000000D1120008751800085C
:100040001B0100081B0100081B0100081B01000820
:100050001B0100081B0100081B0100081B01000810
:100060001B0100081B0100081B0100081B01000800
:100070001B0100081B0100081B0100081B010008F0
:100080001B0100081B0100081B0100081B010008E0
:100090001B0100081B0100081B0100081B010008D0
:1000A0001B0100081B0100081B0100081B010008C0
:1000B0001B0100081B0100081B0100081B010008B0
:1000C0001B0100081B0100081B0100081B010008A0
:1000D0001B0100081D1D00081B0100081B01000872
:1000E0001B0100081B0100081B010008DFF80CD0F1
:1000F00000F0EEF80048004715220008D804002060
:100100000648804706480047FEE7FEE7FEE7FEE7B1
:10011000FEE7FEE7FEE7FEE7FEE7FEE779180008E8
:10012000ED00000880EA010210B502F00043400033
:1001300022D04A001FD0010E01EB1261C0F356001D
:10014000C2F3560240F4000042F40002A0FB022079
:1001500000047F39140400D0401C50EA124001D43E
:100160004000491EC2B20C0604EBD010401C4008EF
:10017000802A02D003E0002010BD20F001000029F9
:1001800000DA0020184310BD30B480EA010202F00A
:10019000004530F0004221F0004013D090B1C30D73
:1001A000D40DC2F31601C0F31600E41A41F40001A5
:1001B00040F400027D34914201D3641C00E0490008
:1001C000002C02DA30BC002070474FF400000023FE
:1001D000914201D3891A034340084FEA4101F7D104
:1001E00051B1914202D14FF0004105E002D24FF0EF
:1001F000010101E06FF0010103EBC450284430BC61
:1002000000F02FB896230022114600F033B820F0FA
:100210000040C10DC0F3160040F400007F2901DA50
:1002200000207047962903DCC1F19601C840704751
:1002300096398840704730B50B4601460020202291
:10024000012409E021FA02F59D4205D303FA02F5E3
:10025000491B04FA02F52844151EA2F10102F1DC43
:1002600030BD0029A8BF7047401C490008BF20F0DE
:100270000100704710B4B0FA80FC00FA0CF050EAAC
:10028000010404BF10BC704749B1CCF1200421FA2D
:1002900004F411FA0CF118BF012121430843A3EB28
:1002A0000C01CB1D4FEA00614FEA102042BF002035
:1002B00010BC704700EBC35010440029A4BF10BC11
:1002C0007047401C490008BF20F0010010BC704777
:1002D000064C074D06E0E06840F0010394E8070093
:1002E00098471034AC42F6D3FFF704FF042300080C
:1002F0002423000808B50121084600F0F7FF01217A
:100300004FF4027001F012F84FF4004000F0E2FFE9
:100310000220ADF8000000208DF803006946024875
:1003200000F059FA08BD0000000C014000B591B082
:10033000374800F08BF9374806903748079000207F
:1003400008902020099000200A9080200B90C00087
:100350000C900D9020200E9000020F900020109025
:1003600006A92B4800F018FA0121294800F062F98B
:1003700028484C3800F068F8012000F041F90020CE
:10038000019001208DF808008DF809004FF46020DD
:1003900003900020049020208DF8140001A91D482E
:1003A0004C3800F093F807230122092119484C38F2
:1003B00000F0B4F807230222112116484C3800F04F
:1003C000ADF8012113484C3800F033F801211148F1
:1003D0004C3800F023F80F484C3800F0FBF800BF11
:1003E0000C484C3800F068F80028F9D109484C381E
:1003F00000F000F900BF07484C3800F053F800281F
:10040000F9D1012103484C3800F0E9F811B000BDE2
:10041000080002404C2401404400002021B18268C1
:1004200042F00102826003E0826822F001028260F1
:10043000704721B1826842F48072826003E0826872
:1004400022F480728260704710B5044612488442DC
:1004500008D10121401500F079FF0021601500F05E
:1004600075FF17E00D48844208D10121001500F006
:100470006DFF0021201500F069FF0BE00848844261
:1004800008D10121C80300F061FF00214FF40040B2
:1004900000F05CFF10BD0000002401400028014076
:1004A000003C0140014600208A6802F004020AB1C3
:1004B000012000E000207047014600208A6802F019
:1004C00008020AB1012000E00020704730B5024662
:1004D0000020002350680F4C20400D790C6844EA3E
:1004E00005242043506090680B4C2040D1E9025411
:1004F0002C434D7944EA450420439060D06A20F4AF
:1005000070000C7C641EE4B2234340EA0350D062C6
:1005100030BD0000FFFEF0FFFDF7F1FFF0B504462F
:100520000D4600200021092D11DDE068A5F10A0625
:1005300006EB4607072606FA07F18843A5F10A06E7
:1005400006EB460603FA06F10843E0600CE020697A
:1005500005EB4507072606FA07F1884305EB450634
:1005600003FA06F108432061072A0FDA606B561E72
:1005700006EB86071F2606FA07F18843561E06EB90
:10058000860605FA06F10843606322E00D2A0FDAB9
:10059000206BD61F06EB86071F2606FA07F1884355
:1005A000D61F06EB860605FA06F10843206310E025
:1005B000E06AA2F10D0606EB86071F2606FA07F190
:1005C0008843A2F10D0606EB860605FA06F10843FC
:1005D000E062F0BD816841F008018160704721B19F
:1005E000826842F4A002826003E0826822F4A002E2
:1005F00082607047816841F00401816070470000AB
:1006000030B10749096841F40001054A116005E06D
:100610000349096821F40001014A11607047000094
:100620000824014010B5FFF765FEFFF77FFE10BDFF
:1006300000BFFEE721B1026842F00102026004E05F
:1006400002684FF6FE731A400260704701684FF669
:10065000FE72114001600021016041608160C16053
:100660004B49884208D14A490839496841F00F018D
:10067000474A083A51608AE045491431884208D116
:1006800043490839496841F0F001414A083A51604C
:100690007DE03F492831884208D13D490839496801
:1006A00041F470613A4A083A516070E038493C318F
:1006B000884208D136490839496841F47041344AC2
:1006C000083A516063E032495031884208D13049DC
:1006D0000839496841F470212D4A083A516056E0C2
:1006E0002B496431884208D129490839496841F4C5
:1006F0007001274A083A516049E02549783188421B
:1007000008D123490839496841F07061204A083A04
:1007100051603CE01F49884206D1011F096841F041
:100720000F01021F116032E01A491431884208D1CA
:100730001849091F096841F0F001164A121F11609B
:1007400025E014492831884208D11249091F096857
:1007500041F470610F4A121F116018E00D493C31DD
:10076000884208D10B49091F096841F47041094AC0
:10077000121F11600BE007495031884207D105492B
:10078000091F096841F47021024A121F1160704765
:10079000080002400804024010B50022026847F633
:1007A000F0739A430C6A8B6823430C6923434C69AA
:1007B00023438C692343CC6923434C6A23438C6ACB
:1007C00023431A430260CB6843600B6883604B6825
:1007D000C36010BD70472DE9F04102460025002698
:1007E000002000230024002791F803C00CF00F051F
:1007F00091F803C00CF0100CBCF1000F03D091F87D
:1008000002C04CEA050591F800C0BCF1000F31D0E0
:10081000146800202BE04FF0010C0CFA00F3B1F843
:1008200000C00CEA03069E4220D183004FF00F0C5B
:100830000CFA03F7BC4305FA03FC4CEA040491F8F4
:1008400003C0BCF1280F06D14FF0010C0CFA00FCDC
:10085000C2F814C00AE091F803C0BCF1480F05D1FA
:100860004FF0010C0CFA00FCC2F810C0401C082824
:10087000D1D31460B1F800C0BCF1FF0F34DD54686F
:1008800000202EE000F1080C4FF0010808FA0CF3EC
:10089000B1F800C00CEA03069E4221D183004FF05C
:1008A0000F0C0CFA03F7BC4305FA03FC4CEA0404F2
:1008B00091F803C0BCF1280F05D100F1080C08FA2B
:1008C0000CF8C2F8148091F803C0BCF1480F07D1AE
:1008D00000F1080C4FF0010808FA0CF8C2F810807B
:1008E000401C0828CED35460BDE8F081F0B50A461C
:1008F000002300240021002500F00046B6F1004F3F
:1009000002D11D4EF16901E01B4E7168C0F3034531
:1009100083B200F44016B6F5401F08D121F0706193
:10092000154E766826F07066134F7E6012E000F474
:100930008016B6F5801F06D1032606FA05F4A143FA
:1009400041F0706106E0460D360103FA06F6B14348
:1009500041F0706122B1460D360103FA06F63143CB
:1009600000F00046B6F1004F02D1034EF16101E004
:10097000014E7160F0BD0000000001404161704710
:100980000161704700BFFEE708B50121082000F0B3
:10099000CDFC2020ADF8000003208DF802001020CF
:1009A0008DF8030069460E48FFF715FF4FF480608D
:1009B000ADF8000014208DF8030069460848FFF7E1
:1009C0000AFF4FF40060ADF8000014208DF803001A
:1009D00069460348FFF7FFFE02A001F02BFB08BDAC
:1009E000000C01400D0A2049324309496E697469BF
:1009F000616C69736174696F6E2066696E69736892
:100A00006564202E2E2E00004FF480600949086096
:100A100000BF4FF400600749086000BF4FF48060DA
:100A20000449091F086000BF4FF480600149086055
:100A300000BF7047140C01404FF480600449086007
:100A40004000091F086040100860091D08607047D9
:100A5000140C0140082100200A02134B1A6000BF49
:100A600016E04FF48062104B1B1D1A6000BF00BFE0
:100A70004FF480620C4B1A6000BF4206100E00BF9C
:100A8000094A083A126802F400620AB140F0010013
:100A90000A00A1F10103D9B2E3D14FF48062024B05
:100AA0001B1D1A6070470000100C01404FF480605D
:100AB000134908604000091F08604010086000BF2B
:100AC0000F480C38006808B9012000E0002000F44D
:100AD000006008B1002070474FF4006008490860CA
:100AE00000BF07480C38006800F4006008B100201F
:100AF000F1E74FF40060024908600120EBE70000D5
:100B0000140C01404FF48060044908604000086004
:100B10004010091F0860400008607047140C014035
:100B200010B54FF480601349086000BF4FF40060B7
:100B30001049091F086000BF4FF480600D49091F6C
:100B4000086000BF0B480C38006800F4006048B132
:100B50004FF480600749086000BF07A001F06AFAFF
:100B6000002010BD4FF480600249086000BF0120E2
:100B7000F7E70000140C01400D0A204932432072AF
:100B8000656365697665204E61636B206F72206EC8
:100B90006F20526573706F6E64696E67202E2E2E03
:100BA00000000000082115E04FF480620E4B1A602F
:100BB00000F080021AB1DA141B1F1A6003E04FF430
:100BC0000062094B1A604206100E4FF48062064B19
:100BD0001B1F1A600A00A1F10103D9B2E4D14FF43E
:100BE0008062014B1A607047140C014010B5FFF78A
:100BF000CBFE40F6FF7001F0F4FA752000F09EFD88
:100C000068280CD0752000F099FD044621461AA0F2
:100C100001F010FA1DA001F00DFA002010BD002116
:100C20006B2000F0DDFD44F6206001F0DAFA0021CF
:100C3000192000F0D5FD44F6206001F0D2FA002121
:100C40001A2000F0CDFD44F6206001F0CAFA182108
:100C50001B2000F0C5FD44F6206001F0C2FA1F2100
:100C60001C2000F0BDFD44F6206001F0BAFA0EA091
:100C700001F0E0F90120D1E70D0A2057484F5F410C
:100C80004D5F49203D202564000000002C4D50554B
:100C900036303530206F70656E206661696C656432
:100CA000202E2E2E200D0A000D0A204D50553630D4
:100CB000353009496E697469616C69736174696F73
:100CC0006E205375636365737366756C202E2E2ECC
:100CD0000000000008B50121082000F027FB0121D9
:100CE000102000F023FB0121084600F01FFB01212A
:100CF0001148FFF7FBFD01211048FFF7F7FD082021
:100D0000ADF8000010208DF8030003208DF80200DC
:100D100069460B48FFF75FFD4FF40050ADF8000047
:100D200010208DF8030003208DF802006946054865
:100D3000FFF751FD08BD0000000430000002300044
:100D4000000C01400010014010B500F0C5FD00F09E
:100D5000D9FD02A001F06EF910BD00000D0A20506F
:100D6000574D09496E697469616C69736174696F83
:100D70006E2066696E6973686564202E2E2E0000F1
:100D800000201AE041000E4A52F821100D4A42F8A4
:100D90002010114651F82010090242F82010114687
:100DA00051F820204100491C054B53F821101144F3
:100DB000044A42F82010411CC8B20828E2DB704700
:100DC00084000020BC00002010B513A001F032F90F
:100DD0001A4801681AA001F02DF9184841681DA0B1
:100DE00001F028F9154881681FA001F023F9134884
:100DF000C16822A001F01EF91048016924A001F089
:100E000019F90E48416927A001F014F90B488169CE
:100E100029A001F00FF910BD0D0A202D2D2D2D2038
:100E2000474554204D5055363035302044415441CB
:100E3000202D2D2D2D200D0A00000000BC000020CB
:100E40000D0A20414343454C5F584F5554203D20E7
:100E5000256400000D0A20414343454C5F594F551E
:100E600054203D20256400000D0A20414343454C99
:100E70005F5A4F5554203D20256400000D0A205430
:100E8000454D505F4F5554203D2025640000000023
:100E90000D0A204759524F5F584F5554203D202589
:100EA000640000000D0A204759524F5F594F5554B6
:100EB000203D2025640000000D0A204759524F5F55
:100EC0005A4F5554203D20256400000010B50E24D3
:100ED000FFF7ECFD20B919A001F0ACF8002010BD1F
:100EE000D020FFF75FFEFFF71BFE18B9FFF70AFEE1
:100EF0000020F4E73B20FFF755FEFFF711FEFFF758
:100F0000D5FDD120FFF74EFEFFF70AFE08E0FFF700
:100F1000A1FDC4F10D01124A42F82100FFF774FD52
:100F2000601EC0B20400F2D1FFF794FD0C49486383
:100F3000FFF782FDFFF7E6FD0120D0E70D0A2057FD
:100F400061726E696E673A20493243207374617230
:100F500074206661696C6564202E2E2E00000000EE
:100F60008400002000BFFEE7704700001CB505228A
:100F70001049302000F01EF905226946102000F0CB
:100F8000B3F8002408E01DF804000A49095D88420E
:100F900000D003E0601CC4B2052CF4DB00BF052CBC
:100FA00003D105A001F046F802E00EA001F042F8DE
:100FB0001CBD0000160000200D0A204E524632349F
:100FC0004C30312009496E697469616C69736174D0
:100FD000696F6E205375636365737366756C202E3D
:100FE0002E2E00000D0A205741524E494E473A20FE
:100FF00020094E524632344C303120496E697469B2
:10100000616C69736174696F6E204661696C6564B7
:101010002021000070B505460C4604211F48FFF74B
:10102000ADFCFF21E12000F0E5F8FF21E22000F017
:10103000E1F805221A49302000F0BCF805221949D0
:101040002A2000F0B7F80121212000F0D3F8012177
:10105000222000F0CFF81A21242000F0CBF82946F6
:10106000252000F0C7F82021312000F0C3F80F211F
:10107000262000F0BFF8012C04D10E21202000F022
:10108000B9F805E0022C03D10F21202000F0B2F8BE
:1010900004210248FFF774FC70BD0000000C014001
:1010A000160000201B00002010B504210548FFF7A2
:1010B00065FC0F21202000F09DF804210148FFF776
:1010C0005FFC10BD000C014010B504210548FFF77E
:1010D00055FC0E21202000F08DF804210148FFF777
:1010E0004FFC10BD000C01402DE9F04107460D46B4
:1010F000164610210B48FFF741FC384600F060FA15
:101100008046002405E0002000F05AFA2855601CB3
:10111000C4B2B442F7DB10210248FFF731FC40466D
:10112000BDE8F0810008014070B504461021084870
:10113000FFF724FC204600F043FA002000F040FABC
:10114000054610210248FFF71BFC284670BD000031
:101150000008014070B505460E46FFF7B5FF0421B3
:101160001348FFF70BFC32462946A02000F022F876
:1011700004210F48FFF704FC00BF0D480830006849
:1011800000F001000028F8D10720FFF7CDFF04464A
:1011900004F0100030B104F0010018B1FF21E1208B
:1011A00000F028F804F0200008B1FFF77DFF70BDC3
:1011B000000C01402DE9F04107460D46164610216E
:1011C0000B48FFF7DBFB384600F0FAF980460024B5
:1011D00004E0285D00F0F4F9601CC4B2B442F8DB0E
:1011E00010210348FFF7CCFB4046BDE8F08100002A
:1011F0000008014070B505460C4610210748FFF76E
:10120000BDFB284600F0DCF90646204600F0D8F980
:1012100010210248FFF7B4FB304670BD00080140C2
:1012200008B54FF4A06000F049F825208DF80000C3
:1012300001208DF8010000208DF8020001208DF8BA
:101240000300684600F002F808BD000070B50021F8
:1012500000230F22C47804B3154C246804F4E0641E
:10126000C4F5E064210AC1F10403CA40447804FAD9
:1012700003F184781440214309010E4C0678A155EE
:10128000047804F01F050124AC4005786D11AD0011
:1012900005F1E025C5F8004109E0047804F01F05D8
:1012A0000124AC40044D0678761145F8264070BD07
:1012B0000CED00E000E400E080E100E002490143C1
:1012C000024A1160704700000000FA050CED00E0D2
:1012D0007047000001460020034A506820F4404057
:1012E00008435060704700000010024029B1064AD0
:1012F00052690243044B5A6104E0034A5269824333
:10130000014B5A61704700000010024029B1064AA3
:10131000D2690243044BDA6104E0034AD269824392
:10132000014BDA61704700000010024029B1064A03
:1013300092690243044B9A6104E0034A9269824332
:10134000014B9A61704700000010024029B1064A23
:10135000D2680243044BDA6004E0034AD268824355
:10136000014BDA60704700000010024030B50021E8
:101370000022002400232D4D6D6805F00C0121B1E1
:10138000042905D0082923D105E0294D056022E074
:10139000284D05601FE0254D6D6805F47012234D42
:1013A0006D6805F48034022505EB92421CB9224D8C
:1013B000554305600BE01D4D6D6805F400351DB10A
:1013C0001B4D5543056002E01A4D5543056002E090
:1013D000174D056000BF00BF144D6D6805F0F001AA
:1013E0000909164D6B5C0568DD4045600F4D6D6861
:1013F00005F4E061090A114D6B5C4568DD408560CC
:101400000A4D6D6805F46051C90A0C4D6B5C456866
:10141000DD40C560054D6D6805F44041890B084D00
:101420006B5CC568B5FBF3F5056130BD001002408B
:1014300000127A000024F40000093D0000000020A2
:101440001000002021B1028842F04002028004E036
:1014500002884FF6BF731A40028070470246002090
:1014600013890B400BB1012000E0002070470146BA
:10147000888970478181704710B50022028802F484
:1014800041520B884C8823438C882343CC882343C8
:101490000C8923434C8923438C892343CC892343E0
:1014A0001A430280838B4FF2FF74234083830B8A9D
:1014B000038210BD00B587B001210420FFF736FF7D
:1014C00001210820FFF732FF01210803FFF72EFF5B
:1014D000E020ADF8040001208DF8060018208DF8FA
:1014E000070001A92A48FFF776F90420ADF80400A7
:1014F00001208DF8060010208DF8070001A925486D
:10150000FFF769F91020ADF8040001208DF80600FE
:1015100010208DF8070001A91D48FFF75CF9012094
:10152000ADF8040003208DF8060048208DF8070070
:1015300001A91848FFF74FF910211548FFF720FAC5
:101540000020ADF808004FF48270ADF80A000020CA
:10155000ADF80C00ADF80E00ADF810004FF40070BF
:10156000ADF812001020ADF814000020ADF8160000
:101570000720ADF8180002A90748FFF77DFF0121F9
:101580000548FFF75FFF05A000F054FD07B000BD60
:1015900000080140000C0140003001400D0A2053BA
:1015A000504909496E697469616C69736174696F46
:1015B0006E2066696E6973686564202E2E2E0000A9
:1015C00070B504464FF4805507E02800A5F10105E9
:1015D00003D100F023F8C0B270BD02210E48FFF71E
:1015E0003DFF0028F1D021460B48FFF743FF08E0FC
:1015F0002800A5F1010504D1012000F00FF8C0B2C8
:10160000EAE701210448FFF729FF0028F0D002484B
:10161000FFF72DFFC0B2DFE70030014010B50446F0
:10162000214602A000F006FD002010BD53504920C5
:1016300077616974206F76657274696D6521657272
:10164000726F72436F6465203D20256400000000C6
:10165000704710B500F002F810BD00000CB5002076
:10166000019000903348006840F4803031490860B0
:1016700000BF3048006800F4003000900198401C22
:101680000190009818B90198B0F5A06FF1D12948E0
:10169000006800F4003010B10120009001E000204B
:1016A00000900098012843D12348006840F01000C2
:1016B000214908600846006820F0030008600846D9
:1016C000006840F0020008601A4840681949486004
:1016D0000846406848600846406840F480604860BA
:1016E0000846406820F47C1048600846406840F492
:1016F000F81048600846006840F08070086000BF3D
:101700000C48006800F000700028F9D009484068D3
:1017100020F00300074948600846406840F0020096
:10172000486000BF0348406800F00C000828F9D169
:101730000CBD0000001002400020024070B50446BD
:10174000FFF7B4F920B914A000F074FC002070BDBC
:10175000D020FFF727FAFFF7E3F930B9FFF7D2F906
:1017600016A000F067FC0020F1E72046FFF71AFA08
:10177000FFF7D6F9FFF79AF900BFD120FFF712FA69
:10178000FFF7CEF9FFF766F9054600BFFFF754F9FA
:10179000FFF7B8F92846DAE70D0A205761726E693B
:1017A0006E673A2049324320737461727420666117
:1017B000696C6564202E2E2E000000000D0A205753
:1017C00061726E696E673A2057616974696E67204D
:1017D00041636B206661696C6564202E2E2E0000CB
:1017E00070B505460C46FFF761F920B90FA000F06F
:1017F00021FC002070BDD020FFF7D4F9FFF790F94D
:1018000030B9FFF77FF912A000F014FC0020F1E7D7
:101810002846FFF7C7F9FFF783F92046FFF7C2F91B
:10182000FFF77EF9FFF76EF90120E3E70D0A205775
:1018300061726E696E673A20493243207374617237
:1018400074206661696C6564202E2E2E00000000F5
:101850000D0A205761726E696E673A20576169748C
:10186000696E672041636B206661696C6564202E38
:101870002E2E00007047000010B51348006840F09D
:1018800001001149086008464068104908400E49A7
:101890004860084600680E4908400B490860084641
:1018A000006820F4802008600846406820F4FE00AC
:1018B00048604FF41F008860FFF7CBFE4FF00060D8
:1018C0000449086010BD0000001002400000FFF84D
:1018D000FFFFF6FE08ED00E008B501210420FFF748
:1018E00025FD0F20ADF8000018208DF8030003201F
:1018F0008DF8020069460248FEF76DFF08BD000042
:101900000008014000B587B001210846FFF7FEFC42
:1019100040F2E730ADF814000320ADF810000020CD
:10192000ADF81600ADF812008DF8180004A94FF0BC
:10193000804000F0A1F96020ADF800000120ADF872
:1019400002000020ADF80600ADF808004FF48070EA
:10195000ADF80C006946800500F032F80821C80691
:1019600000F07AF869464FF0804000F07FF80821D7
:10197000C80600F0CDF869464FF0804000F0D6F878
:101980000821C80600F022F969464FF0804000F0B7
:1019900027F90821C80600F061F90121880700F045
:1019A00002F807B000BD21B1028842F001020280B6
:1019B00004E002884FF6FE731A4002807047000070
:1019C00070B5002400220023058C4FF6FE763540CA
:1019D0000584028C8388048B4FF68F752C40B51ECE
:1019E0002C400D882C43751E2A400D892A434D88B2
:1019F0002A43144DA8420BD0134DA84208D0134DD2
:101A0000A84205D0124DA84202D0124DA84213D1CF
:101A10004FF6F7752A404D892A434FF6FB752A4049
:101A20008D882A434FF6FF652B404FF6FF552B401C
:101A30008D892B43CD892B4383800483CD88858674
:101A4000028470BD002C0140003401400040014080
:101A500000440140004801400A460021018B4FF636
:101A6000F7731940114301837047000070B50024DB
:101A700000220023058C4FF6EF7635400584028C5A
:101A80008388048B48F6FF752C404FF6FF452C40A9
:101A90000D884FF6FF7606EA05252C434FF6DF75D5
:101AA0002A400D8906EA05152A434D8806EA0515E0
:101AB0002A43154DA84202D0144DA8421DD14FF61D
:101AC0007F752A404D894FF6FF7606EA05152A43B1
:101AD0004FF6BF752A408D8806EA05152A434FF652
:101AE000FF352B404FF2FF752B408D8906EA8505A7
:101AF0002B43CD8906EA85052B4383800483CD885B
:101B00000587028470BD0000002C014000340140B4
:101B10000A460021018B4FF2FF7319404FF6FF7305
:101B200003EA0223194301837047000070B50024C3
:101B300000220023058C4FF6FF6635400584028C99
:101B40008388848B4FF68F752C404FF6FC752C40A4
:101B50000D882C434FF6FF552A400D894FF6FF762E
:101B600006EA05252A434D8806EA05252A43154D30
:101B7000A84202D0144DA8421DD14FF2FF752A4051
:101B80004D894FF6FF7606EA05252A434FF6FF35C5
:101B90002A408D8806EA05252A434EF6FF752B401C
:101BA0004DF6FF752B408D8906EA05152B43CD892F
:101BB00006EA05152B4383808483CD8885870284BC
:101BC00070BD0000002C0140003401400A46002195
:101BD000818B4FF6F77319401143818370470000E2
:101BE00070B5002200230024058C4EF6FF763540A8
:101BF0000584038C8488828B48F6FF752A404FF653
:101C0000FF452A400D884FF6FF7606EA05252A4350
:101C10004DF6FF752B400D8906EA05352B434D889F
:101C200006EA05352B430B4DA84202D00A4DA842C7
:101C300008D14BF6FF752C408D894FF6FF7606EAEA
:101C400085152C4384808283CD88A0F8405003847E
:101C500070BD0000002C0140003401400A46002104
:101C6000818B4FF2FF7319404FF6FF7303EA022393
:101C70001943818370470000002202881D4B98425F
:101C80000ED01D4B98420BD0B0F1804F08D01B4BAB
:101C9000984205D01A4B984202D01A4B984204D170
:101CA0004FF68F731A404B881A43174B984207D050
:101CB000164B984204D04FF6FF431A40CB881A4384
:101CC00002808B8883850B8803850A4B98420BD052
:101CD000094B984208D00E4B984205D00D4B9842C4
:101CE00002D00D4B984201D10B7A038601238382E7
:101CF00070470000002C0140003401400004004007
:101D000000080040000C004000100040001400409B
:101D100000400140004401400048014010B540F23D
:101D20002551064800F06DF838B1044800F024F958
:101D3000C4B22146014800F02AF910BD0038014024
:101D400021B1828942F40052828104E082894DF6F9
:101D5000FF731A408281704710B586B00446012196
:101D60000520FFF7E3FA01218803FFF7DFFA4FF4BC
:101D70000070ADF8140018208DF8170003208DF8BE
:101D8000160005A91648FEF726FD4FF48060ADF851
:101D9000140004208DF8170005A91148FEF71BFD5B
:101DA00001940020ADF80800ADF80A00ADF80C0071
:101DB000ADF810000C20ADF80E0001A9094800F0A4
:101DC0006FF8FFF72DFA012240F22551054800F087
:101DD00042F801210348FFF7B3FF06B010BD000031
:101DE000000801400038014002460020B1F5007FA4
:101DF00000D100BF13880B400BB1012000E0002090
:101E0000704770B50246002400230025002040F6EC
:101E10006A16B14200D100BFC1F3421501F01F03A1
:101E2000012606FA03F3012D02D19689334006E01C
:101E3000022D02D1168A334001E0968A33400C12FB
:101E4000012606FA04F41688344013B10CB10120BF
:101E500000E0002070BDF0B50346002400260025F8
:101E6000002040F66A17B94200D100BF1846C1F3FE
:101E7000421401F01F06012707FA06F5012C01D1D3
:101E80000C3004E0022C01D1103000E014301AB103
:101E900007682F43076002E00768AF430760F0BDA3
:101EA0002DE9F04786B005460E460024A24600BF45
:101EB000A1460027B08900B100BF2F462C8A4CF6FE
:101EC000FF700440F08804432C82AC894EF6F31076
:101ED0000440B08831890843718908430443AC81C8
:101EE000AC8A4FF6FF400440B0890443AC8201A89D
:101EF000FFF73CFA1F48874202D1DDF810A001E04D
:101F0000DDF80CA0A88900F4004040B10AEBCA003B
:101F100000EB0A1031684900B0FBF1F807E00AEB6A
:101F2000CA0000EB0A1031688900B0FBF1F86420A8
:101F3000B8FBF0F004012009642101FB1089A88995
:101F400000F4004040B1322000EBC900B0FBF1F0DA
:101F500000F00700044308E0322000EB0910642180
:101F6000B0FBF1F000F00F0004432C8106B0BDE897
:101F7000F08700000038014001468888C0F308005F
:101F80007047C1F308028280704700BFFEE770B55A
:101F900004460D4629462046FFF7F3FF00BF802187
:101FA0002046FFF721FF0028F9D070BD2DE9F0474A
:101FB00012494888FEF726F9804610490888FEF73E
:101FC00021F981464FF08041FEF7ACF807464146C3
:101FD000FEF7DAF806460A49FEF7A4F8054609496D
:101FE000FEF7A0F80446FEF712F9074908800846F4
:101FF000018806A000F01EF8BDE8F087440000202C
:102000009A99993F0000C842140000200D0A2054FC
:1020100068652063757272656E7420566F6C7461AA
:1020200067652074696D657320313030203A202552
:10203000642056000FB4054B10B503A9044A02985A
:1020400000F018F810BC5DF814FB0000F121000846
:102050002000002002E008C8121F08C1002AFAD19F
:1020600070477047002001E001C1121F002AFBD118
:10207000704700002DE9FF4F89B09B4604460025BC
:1020800006E025280BD05A460B999047641C6D1C1E
:1020900020780028F5D10DB02846BDE8F08F002744
:1020A000B8460122474900E0074314F8013F203BAE
:1020B00002FA03F00842F7D120782E2819D114F83B
:1020C000010F47F004072A280ED06FF02F02207866
:1020D000A0F1300109290CD808EB880102EB41017D
:1020E00000EB0108641CF2E70A98641C50F8048BAA
:1020F0000A9020780028CED0642808D0692806D01D
:1021000075281ED05A460B9990476D1C58E00A99C5
:102110004FF00A0901C90A91002802DA40422D2134
:1021200002E0390504D52B218DF82010012103E0B0
:10213000F90704D02021F7E78A4608AE0DE0002118
:10214000FAE70A994FF00A0901C90A91F7E74946E7
:10215000FEF771F8303106F8011D0028F7D1ADEB1C
:10216000060000F12009780701D44FF00108C845A6
:1021700002DDA8EB090000E000208046002706E011
:1021800008A85A46C05D0B9990476D1C7F1C5745A7
:10219000F6DB04E030205A460B9990476D1CB8F1ED
:1021A0000001A8F10108F5DC05E016F8010B5A461C
:1021B0000B9990476D1CB9F10001A9F10109F4DCFC
:1021C000641C65E709280100002107E0002200E007
:1021D000521C42F234139A42FAD3491C8142F5D37D
:1021E0007047002100E0491C8142FCD37047000089
:1021F00070B504460D46E1B20548FFF7C2FE00BFC8
:1022000080210348FFF7F0FD0028F9D0204670BD7B
:1022100000380140FEF75EFD08201F4908604FF4BA
:10222000E130FFF799FD1DA0FFF704FF29A0FFF79C
:1022300001FFFEF7F7F9FEF787FD0A20FFF7C4FF5D
:10224000FEF7D4FC0A20FFF7BFFFFFF733F90A209F
:10225000FFF7BAFF01212820FEF7DCFEFEF786FE1D
:1022600019E04FF4005025490861FFF79FFEFEF783
:102270002DFEFEF785FDFEF7A7FD20212048FEF785
:1022800069FF1E20FFF7A0FF4FF400501B49486173
:102290001E20FFF799FFE4E7140C01400D0A202FE0
:1022A0002F2F2F2F2F2F2F2F2F2F2F2F2F2F204438
:1022B000524F4E4520204D455243555259202F2F05
:1022C0002F2F2F2F2F2F2F2F2F2F2F2F2F2F2F2F1E
:1022D0002F0000000D0A20555341525409496E69E0
:1022E0007469616C69736174696F6E2066696E6987
:1022F00073686564202E2E2E20000000001001401F
:1023000024000020242300080000002024000000F6
:10231000542000084823000824000020B4040000D2
:10232000642000080000000001020304010203040D
:10233000060708090204060800001A3B5C7D9E1A85
:082340003B5C7D9E00000000E3
:04000005080000ED02
:00000001FF
