:020000040800F2
:10000000600400200101000879090008FD080008CB
:1000100075090008B10500083B0F0008000000004A
:100020000000000000000000000000007D0B000840
:100030005507000800000000290A0008690C0008A4
:100040001B0100081B0100081B0100081B01000820
:100050001B0100081B0100081B0100081B01000810
:100060001B0100081B0100081B0100081B01000800
:100070001B0100081B0100081B0100081B010008F0
:100080001B0100081B0100081B0100081B010008E0
:100090001B0100081B0100081B0100081B010008D0
:1000A0001B0100081B0100081B0100081B010008C0
:1000B0001B0100081B0100081B0100081B010008B0
:1000C0001B0100081B0100081B0100081B010008A0
:1000D0001B010008CD0C00081B0100081B010008D3
:1000E0001B0100081B0100081B010008DFF80CD0F1
:1000F00000F0B0F800480047A91100086004002093
:100100000648804706480047FEE7FEE7FEE7FEE7B1
:10011000FEE7FEE7FEE7FEE7FEE7FEE76D0C000800
:10012000ED00000880EA010210B502F00043400033
:1001300022D04A001FD0010E01EB1261C0F356001D
:10014000C2F3560240F4000042F40002A0FB022079
:1001500000047F39140400D0401C50EA124001D43E
:100160004000491EC2B20C0604EBD010401C4008EF
:10017000802A02D003E0002010BD20F001000029F9
:1001800000DA0020184310BD96230022114600F02B
:1001900033B820F00040C10DC0F3160040F4000059
:1001A0007F2901DA00207047962903DCC1F196010E
:1001B000C840704796398840704730B50B460146B5
:1001C00000202022012409E021FA02F59D4205D3F6
:1001D00003FA02F5491B04FA02F52844151EA2F1A0
:1001E0000102F1DC30BD0029A8BF7047401C490066
:1001F00008BF20F00100704710B4B0FA80FC00FA8C
:100200000CF050EA010404BF10BC704749B1CCF1B6
:10021000200421FA04F411FA0CF118BF0121214342
:100220000843A3EB0C01CB1D4FEA00614FEA1020FD
:1002300042BF002010BC704700EBC350104400299F
:10024000A4BF10BC7047401C490008BF20F001004B
:1002500010BC7047064C074D06E0E06840F0010313
:1002600094E8070098471034AC42F6D3FFF742FFFA
:10027000241200084412000808B50121084600F0C5
:10028000E1FB01214FF4027000F0ECFB4FF4004061
:1002900000F0CCFB0220ADF8000000208DF8030038
:1002A0006946024800F057FA08BD0000000C014002
:1002B00000B591B0364800F089F9364806903648C6
:1002C0000790002008900A9080200B90C0000C90AE
:1002D0000D9020200E9000020F900020109006A993
:1002E0002B4800F019FA0121294800F063F9294848
:1002F0004C3800F069F8012000F042F9002001902C
:1003000001208DF808008DF809004FF4602003905B
:100310000020049020208DF8140001A91D484C38BD
:1003200000F094F80723012209211A484C3800F004
:10033000B5F807230122092116484C3800F0AEF821
:10034000012114484C3800F034F8012111484C3890
:1003500000F024F80F484C3800F0FCF800BF0D48BE
:100360004C3800F069F80028F9D10A484C3800F000
:1003700001F900BF07484C3800F054F80028F9D1C3
:10038000012104484C3800F0EAF811B000BD00002B
:10039000080002404C2401401C00002021B182686A
:1003A00042F00102826003E0826822F00102826072
:1003B000704721B1826842F48072826003E08268F3
:1003C00022F480728260704710B50446124884425D
:1003D00008D10121401500F055FB0021601500F007
:1003E00051FB17E00D48844208D10121001500F0AF
:1003F00049FB0021201500F045FB0BE00848844232
:1004000008D10121C80300F03DFB00214FF400405A
:1004100000F038FB10BD000000240140002801401E
:10042000003C0140014600208A6802F004020AB143
:10043000012000E000207047014600208A6802F099
:1004400008020AB1012000E00020704730B50246E2
:100450000020002350680F4C20400D790C6844EABE
:1004600005242043506090680B4C2040D1E9025491
:100470002C434D7944EA450420439060D06A20F42F
:1004800070000C7C641EE4B2234340EA0350D06247
:1004900030BD0000FFFEF0FFFDF7F1FFF0B50446B0
:1004A0000D4600200021092D11DDE068A5F10A06A6
:1004B00006EB4607072606FA07F18843A5F10A0668
:1004C00006EB460603FA06F10843E0600CE02069FB
:1004D00005EB4507072606FA07F1884305EB4506B5
:1004E00003FA06F108432061072A0FDA606B561EF3
:1004F00006EB86071F2606FA07F18843561E06EB11
:10050000860605FA06F10843606322E00D2A0FDA39
:10051000206BD61F06EB86071F2606FA07F18843D5
:10052000D61F06EB860605FA06F10843206310E0A5
:10053000E06AA2F10D0606EB86071F2606FA07F110
:100540008843A2F10D0606EB860605FA06F108437C
:10055000E062F0BD816841F008018160704721B11F
:10056000826842F4A002826003E0826822F4A00262
:1005700082607047816841F004018160704700002B
:1005800030B10749096841F40001054A116005E0EE
:100590000349096821F40001014A11607047000015
:1005A0000824014010B5FFF767FEFFF781FE10BD7C
:1005B00000BFFEE721B1026842F00102026004E0E0
:1005C00002684FF6FE731A400260704701684FF6EA
:1005D000FE72114001600021016041608160C160D4
:1005E0004B49884208D14A490839496841F00F010E
:1005F000474A083A51608AE045491431884208D197
:1006000043490839496841F0F001414A083A5160CC
:100610007DE03F492831884208D13D490839496881
:1006200041F470613A4A083A516070E038493C310F
:10063000884208D136490839496841F47041344A42
:10064000083A516063E032495031884208D130495C
:100650000839496841F470212D4A083A516056E042
:100660002B496431884208D129490839496841F445
:100670007001274A083A516049E02549783188429B
:1006800008D123490839496841F07061204A083A85
:1006900051603CE01F49884206D1011F096841F0C2
:1006A0000F01021F116032E01A491431884208D14B
:1006B0001849091F096841F0F001164A121F11601C
:1006C00025E014492831884208D11249091F0968D8
:1006D00041F470610F4A121F116018E00D493C315E
:1006E000884208D10B49091F096841F47041094A41
:1006F000121F11600BE007495031884207D10549AC
:10070000091F096841F47021024A121F11607047E5
:10071000080002400804024010B50022026847F6B3
:10072000F0739A430C6A8B6823430C6923434C692A
:1007300023438C692343CC6923434C6A23438C6A4B
:1007400023431A430260CB6843600B6883604B68A5
:10075000C36010BD70472DE9F04102460025002618
:10076000002000230024002791F803C00CF00F059F
:1007700091F803C00CF0100CBCF1000F03D091F8FD
:1007800002C04CEA050591F800C0BCF1000F31D061
:10079000146800202BE04FF0010C0CFA00F3B1F8C4
:1007A00000C00CEA03069E4220D183004FF00F0CDC
:1007B0000CFA03F7BC4305FA03FC4CEA040491F875
:1007C00003C0BCF1280F06D14FF0010C0CFA00FC5D
:1007D000C2F814C00AE091F803C0BCF1480F05D17B
:1007E0004FF0010C0CFA00FCC2F810C0401C0828A5
:1007F000D1D31460B1F800C0BCF1FF0F34DD5468F0
:1008000000202EE000F1080C4FF0010808FA0CF36C
:10081000B1F800C00CEA03069E4221D183004FF0DC
:100820000F0C0CFA03F7BC4305FA03FC4CEA040472
:1008300091F803C0BCF1280F05D100F1080C08FAAB
:100840000CF8C2F8148091F803C0BCF1480F07D12E
:1008500000F1080C4FF0010808FA0CF8C2F81080FB
:10086000401C0828CED35460BDE8F081F0B50A469C
:10087000002300240021002500F00046B6F1004FBF
:1008800002D11D4EF16901E01B4E7168C0F30345B2
:1008900083B200F44016B6F5401F08D121F0706114
:1008A000154E766826F07066134F7E6012E000F4F5
:1008B0008016B6F5801F06D1032606FA05F4A1437B
:1008C00041F0706106E0460D360103FA06F6B143C9
:1008D00041F0706122B1460D360103FA06F631434C
:1008E00000F00046B6F1004F02D1034EF16101E085
:1008F000014E7160F0BD00000000014000BFFEE746
:1009000008B50121082000F0ADF80121102000F009
:10091000A9F80121084600F0A5F801211148FFF7C8
:10092000A5FF01211048FFF7A1FF0820ADF8000046
:1009300010208DF8030003208DF8020069460B4853
:10094000FFF709FF4FF40050ADF8000010208DF8BC
:10095000030003208DF8020069460548FFF7FBFEFF
:1009600008BD00000004300000023000000C01400F
:100970000010014000BFFEE7704708B54FF4A060CB
:1009800000F048F825208DF8000001208DF80100C6
:1009900000208DF8020001208DF80300684600F069
:1009A00001F808BD70B5002100230F22C47804B3FC
:1009B000154C246804F4E064C4F5E064210AC1F134
:1009C0000403CA40447804FA03F1847814402143B4
:1009D00009010E4C0678A155047804F01F05012486
:1009E000AC4005786D11AD0005F1E025C5F800417A
:1009F00009E0047804F01F050124AC40044D06789A
:100A0000761145F8264070BD0CED00E000E400E0F2
:100A100080E100E002490143024A11607047000092
:100A20000000FA050CED00E07047000001460020D0
:100A3000034A506820F4404008435060704700006B
:100A40000010024029B1064A52690243044B5A6120
:100A500004E0034A52698243014B5A617047000027
:100A60000010024029B1064A92690243044B9A6180
:100A700004E0034A92698243014B9A617047000087
:100A80000010024029B1064AD2680243044BDA60E2
:100A900004E0034AD2688243014BDA6070470000E9
:100AA0000010024030B500210022002400232D4D0B
:100AB0006D6805F00C0121B1042905D0082923D166
:100AC00005E0294D056022E0284D05601FE0254D19
:100AD0006D6805F47012234D6D6805F480340225AD
:100AE00005EB92421CB9224D554305600BE01D4DAC
:100AF0006D6805F400351DB11B4D5543056002E0DE
:100B00001A4D5543056002E0174D056000BF00BF58
:100B1000144D6D6805F0F0010909164D6B5C056810
:100B2000DD4045600F4D6D6805F4E061090A114D27
:100B30006B5C4568DD4085600A4D6D6805F4605169
:100B4000C90A0C4D6B5C4568DD40C560054D6D689C
:100B500005F44041890B084D6B5CC568B5FBF3F5A6
:100B6000056130BD0010024000127A000024F4003C
:100B700000093D000000002010000020704710B563
:100B800000F002F810BD00000CB5002001900090AC
:100B90003348006840F480303149086000BF304875
:100BA000006800F4003000900198401C019000980B
:100BB00018B90198B0F5A06FF1D12948006800F488
:100BC000003010B10120009001E00020009000985A
:100BD000012843D12348006840F0100021490860F3
:100BE0000846006820F0030008600846006840F0EE
:100BF000020008601A484068194948600846406881
:100C000048600846406840F4806048600846406894
:100C100020F47C1048600846406840F4F8104860B2
:100C20000846006840F08070086000BF0C4800680B
:100C300000F000700028F9D00948406820F0030057
:100C4000074948600846406840F00200486000BF1D
:100C50000348406800F00C000828F9D10CBD0000E2
:100C600000100240002002407047000010B51348F9
:100C7000006840F0010011490860084640681049CA
:100C800008400E494860084600680E4908400B4974
:100C900008600846006820F4802008600846406824
:100CA00020F4FE0048604FF41F008860FFF767FFE4
:100CB0004FF000600449086010BD000000100240C1
:100CC0000000FFF8FFFFF6FE08ED00E010B540F26F
:100CD0002551064800F06DF838B1044800F024F9B9
:100CE000C4B22146014800F02AF910BD0038014085
:100CF00021B1828942F40052828104E082894DF65A
:100D0000FF731A408281704710B586B004460121F6
:100D10000520FFF7A7FE01218803FFF7A3FE4FF48C
:100D20000070ADF8140018208DF8170003208DF81E
:100D3000160005A91648FFF70EFD4FF48060ADF8C8
:100D4000140004208DF8170005A91148FFF703FDD2
:100D500001940020ADF80800ADF80A00ADF80C00D1
:100D6000ADF810000C20ADF80E0001A9094800F004
:100D70006FF8FFF702FE012240F22551054800F00E
:100D800042F801210348FFF7B3FF06B010BD000091
:100D9000000801400038014002460020B1F5007F04
:100DA00000D100BF13880B400BB1012000E00020F0
:100DB000704770B50246002400230025002040F64D
:100DC0006A16B14200D100BFC1F3421501F01F0302
:100DD000012606FA03F3012D02D19689334006E07D
:100DE000022D02D1168A334001E0968A33400C125C
:100DF000012606FA04F41688344013B10CB1012020
:100E000000E0002070BDF0B5034600240026002558
:100E1000002040F66A17B94200D100BF1846C1F35E
:100E2000421401F01F06012707FA06F5012C01D133
:100E30000C3004E0022C01D1103000E014301AB163
:100E400007682F43076002E00768AF430760F0BD03
:100E50002DE9F04786B005460E460024A24600BFA5
:100E6000A1460027B08900B100BF2F462C8A4CF65E
:100E7000FF700440F08804432C82AC894EF6F310D6
:100E80000440B08831890843718908430443AC8128
:100E9000AC8A4FF6FF400440B0890443AC8201A8FD
:100EA000FFF700FE1F48874202D1DDF810A001E0E5
:100EB000DDF80CA0A88900F4004040B10AEBCA009C
:100EC00000EB0A1031684900B0FBF1F807E00AEBCB
:100ED000CA0000EB0A1031688900B0FBF1F8642009
:100EE000B8FBF0F004012009642101FB1089A889F6
:100EF00000F4004040B1322000EBC900B0FBF1F03B
:100F000000F00700044308E0322000EB09106421E0
:100F1000B0FBF1F000F00F0004432C8106B0BDE8F7
:100F2000F08700000038014001468888C0F30800BF
:100F30007047C1F308028280704700BFFEE770B5BA
:100F400004460D4629462046FFF7F3FF00BF8021E7
:100F50002046FFF721FF0028F9D070BD70B5064686
:100F60000C46002500BF615D3046FFF7E8FF6D1CB1
:100F7000605D0028F7D100BF40213046FFF70CFF2D
:100F80000028F9D070BD000070B50A490888FFF745
:100F9000FBF805464FF08041FFF7C4F80446FFF721
:100FA000F8F8054908800846018804A000F01AF8FE
:100FB00070BD00001C000020140000200D0A205409
:100FC00068652063757272656E7420566F6C74610B
:100FD00067652074696D657320313030203A2025B3
:100FE000642056000FB4054B10B503A9044A0298BB
:100FF00000F018F810BC5DF814FB00008511000823
:101000001800002002E008C8121F08C1002AFAD107
:1010100070477047002001E001C1121F002AFBD178
:10102000704700002DE9FF4F89B09B46044600251C
:1010300006E025280BD05A460B999047641C6D1C7E
:1010400020780028F5D10DB02846BDE8F08F0027A4
:10105000B8460122474900E0074314F8013F203B0E
:1010600002FA03F00842F7D120782E2819D114F89B
:10107000010F47F004072A280ED06FF02F022078C6
:10108000A0F1300109290CD808EB880102EB4101DD
:1010900000EB0108641CF2E70A98641C50F8048B0A
:1010A0000A9020780028CED0642808D0692806D07D
:1010B00075281ED05A460B9990476D1C58E00A9926
:1010C0004FF00A0901C90A91002802DA40422D2195
:1010D00002E0390504D52B218DF82010012103E011
:1010E000F90704D02021F7E78A4608AE0DE0002179
:1010F000FAE70A994FF00A0901C90A91F7E7494648
:10110000FFF75BF8303106F8011D0028F7D1ADEB91
:10111000060000F12009780701D44FF00108C84506
:1011200002DDA8EB090000E000208046002706E071
:1011300008A85A46C05D0B9990476D1C7F1C574507
:10114000F6DB04E030205A460B9990476D1CB8F14D
:101150000001A8F10108F5DC05E016F8010B5A467C
:101160000B9990476D1CB9F10001A9F10109F4DC5C
:10117000641C65E709280100002100E0491C814248
:10118000FCD3704770B504460D46E1B20548FFF741
:10119000D0FE00BF80210348FFF7FEFD0028F9D0F4
:1011A000204670BD00380140FFF7AAFB4FF4E13044
:1011B000FFF7AAFDFFF7F6F90DA11648FFF7CEFEDF
:1011C00014E008201449086080021449086114489A
:1011D000FFF7D2FF08201049091F086080020F495D
:1011E00048610F48FFF7C8FFFFF7CEFEE9E70000B0
:1011F00044726F6E65204D65726375727920555328
:101200004152542074657374696E67202E2E2E2E01
:10121000200A000000380140140C01400010014079
:10122000FFFF0B0044120008000000201C0000001B
:1012300004100008601200081C0000204404000094
:10124000141000080000000001020304010203045E
:10125000060708090204060800000000000000005C
:04000005080000ED02
:00000001FF
