:020000040800F2
:10000000180400200101000871030008F50200082F
:100010006D03000849010008030900080000000002
:100020000000000000000000000000001D050008A6
:100030004D01000800000000210400080906000826
:100040001B0100081B0100081B0100081B01000820
:100050001B0100081B0100081B0100081B01000810
:100060001B0100081B0100081B0100081B01000800
:100070001B0100081B0100081B0100081B010008F0
:100080001B0100081B0100081B0100081B010008E0
:100090001B0100081B0100081B0100081B010008D0
:1000A0001B0100081B0100081B0100081B010008C0
:1000B0001B0100081B0100081B0100081B010008B0
:1000C0001B0100081B0100081B0100081B010008A0
:1000D0001B0100086D0600081B0100081B01000839
:1000E0001B0100081B0100081B010008DFF80CD0F1
:1000F00000F018F800480047D10900081804002053
:100100000648804706480047FEE7FEE7FEE7FEE7B1
:10011000FEE7FEE7FEE7FEE7FEE7FEE70D06000866
:10012000ED000008064C074D06E0E06840F00103D2
:1001300094E8070098471034AC42F6D3FFF7DAFF93
:10014000540A0008740A000800BFFEE770472DE952
:10015000F04102460025002600200023002400274D
:1001600091F803C00CF00F0591F803C00CF0100CCF
:10017000BCF1000F03D091F802C04CEA050591F8DC
:1001800000C0BCF1000F31D0146800202BE04FF00C
:10019000010C0CFA00F3B1F800C00CEA03069E4211
:1001A00020D183004FF00F0C0CFA03F7BC4305FA83
:1001B00003FC4CEA040491F803C0BCF1280F06D1FB
:1001C0004FF0010C0CFA00FCC2F814C00AE091F8E0
:1001D00003C0BCF1480F05D14FF0010C0CFA00FC34
:1001E000C2F810C0401C0828D1D31460B1F800C078
:1001F000BCF1FF0F34DD546800202EE000F1080C44
:100200004FF0010808FA0CF3B1F800C00CEA03063D
:100210009E4221D183004FF00F0C0CFA03F7BC4330
:1002200005FA03FC4CEA040491F803C0BCF1280F62
:1002300005D100F1080C08FA0CF8C2F8148091F806
:1002400003C0BCF1480F07D100F1080C4FF00108C2
:1002500008FA0CF8C2F81080401C0828CED354606D
:10026000BDE8F081F0B50A460023002400210025F6
:1002700000F00046B6F1004F02D11D4EF16901E0D9
:100280001B4E7168C0F3034583B200F44016B6F507
:10029000401F08D121F07061154E766826F0706617
:1002A000134F7E6012E000F48016B6F5801F06D171
:1002B000032606FA05F4A14341F0706106E0460DFD
:1002C000360103FA06F6B14341F0706122B1460DE2
:1002D000360103FA06F6314300F00046B6F1004F4E
:1002E00002D1034EF16101E0014E7160F0BD0000EA
:1002F0000000014000BFFEE708B50121082000F022
:1003000091F80121102000F08DF80121084600F03D
:1003100089F801211148FFF7A5FF01211048FFF7D7
:10032000A1FF0820ADF8000010208DF80300032085
:100330008DF8020069460B48FFF709FF4FF40050A3
:10034000ADF8000010208DF8030003208DF80200A6
:1003500069460548FFF7FBFE08BD000000043000B9
:1003600000023000000C01400010014000BFFEE719
:10037000704708B54FF4A06000F048F825208DF8CC
:10038000000001208DF8010000208DF802000120FE
:100390008DF80300684600F001F808BD70B5002133
:1003A00000230F22C47804B3154C246804F4E064DD
:1003B000C4F5E064210AC1F10403CA40447804FA98
:1003C00003F184781440214309010E4C0678A155AD
:1003D000047804F01F050124AC4005786D11AD00D0
:1003E00005F1E025C5F8004109E0047804F01F0597
:1003F0000124AC40044D0678761145F8264070BDC6
:100400000CED00E000E400E080E100E0024901437F
:10041000024A1160704700000000FA050CED00E090
:100420007047000029B1064A92690243044B9A6161
:1004300004E0034A92698243014B9A6170470000CD
:100440000010024030B500210022002400232D4D71
:100450006D6805F00C0121B1042905D0082923D1CC
:1004600005E0294D056022E0284D05601FE0254D7F
:100470006D6805F47012234D6D6805F48034022513
:1004800005EB92421CB9224D554305600BE01D4D12
:100490006D6805F400351DB11B4D5543056002E044
:1004A0001A4D5543056002E0174D056000BF00BFBF
:1004B000144D6D6805F0F0010909164D6B5C056877
:1004C000DD4045600F4D6D6805F4E061090A114D8E
:1004D0006B5C4568DD4085600A4D6D6805F46051D0
:1004E000C90A0C4D6B5C4568DD40C560054D6D6803
:1004F00005F44041890B084D6B5CC568B5FBF3F50D
:10050000056130BD0010024000127A000024F400A2
:1005100000093D000000002010000020704710B5C9
:1005200000F002F810BD00000CB500200190009012
:100530003348006840F480303149086000BF3048DB
:10054000006800F4003000900198401C0190009871
:1005500018B90198B0F5A06FF1D12948006800F4EE
:10056000003010B10120009001E0002000900098C0
:10057000012843D12348006840F010002149086059
:100580000846006820F0030008600846006840F054
:10059000020008601A4840681949486008464068E7
:1005A00048600846406840F48060486008464068FB
:1005B00020F47C1048600846406840F4F810486019
:1005C0000846006840F08070086000BF0C48006872
:1005D00000F000700028F9D00948406820F00300BE
:1005E000074948600846406840F00200486000BF84
:1005F0000348406800F00C000828F9D10CBD000049
:1006000000100240002002407047000010B513485F
:10061000006840F001001149086008464068104930
:1006200008400E494860084600680E4908400B49DA
:1006300008600846006820F480200860084640688A
:1006400020F4FE0048604FF41F008860FFF767FF4A
:100650004FF000600449086010BD00000010024027
:100660000000FFF8FFFFF6FE08ED00E010B540F2D5
:1006700025510A4800F081F870B109A000F068F92E
:100680004021064800F00EF8044800F031F9C4B2E9
:100690002146024800F037F910BD00000038014043
:1006A0007400000001F40072B2F5007F00D100BFB9
:1006B000CA430280704721B1828942F4005282818C
:1006C00004E082894DF6FF731A4082817047000072
:1006D00010B586B0044601210520FFF7A3FE0121D5
:1006E0008803FFF79FFE4FF40070ADF81400182048
:1006F0008DF8170003208DF8160005A91648FFF79E
:1007000026FD4FF48060ADF8140004208DF817002A
:1007100005A91148FFF71BFD01940020ADF8080062
:10072000ADF80A00ADF80C00ADF810000C20ADF8E3
:100730000E0001A9094800F06FF8FFF71AFE012228
:1007400040F22551054800F042F801210348FFF727
:10075000B2FF06B010BD00000008014000380140A3
:1007600002460020B1F5007F00D100BF13880B4086
:100770000BB1012000E00020704770B50246002454
:1007800000230025002040F66A16B14200D100BFC8
:10079000C1F3421501F01F03012606FA03F3012DF0
:1007A00002D19689334006E0022D02D1168A3340E9
:1007B00001E0968A33400C12012606FA04F41688EA
:1007C000344013B10CB1012000E0002070BDF0B541
:1007D0000346002400260025002040F66A17B9428F
:1007E00000D100BF1846C1F3421401F01F060127D3
:1007F00007FA06F5012C01D10C3004E0022C01D1DE
:10080000103000E014301AB107682F43076002E08F
:100810000768AF430760F0BD2DE9F04786B0054695
:100820000E460024A24600BFA1460027B08900B1B1
:1008300000BF2F462C8A4CF6FF700440F08804431A
:100840002C82AC894EF6F3100440B08831890843FD
:10085000718908430443AC81AC8A4FF6FF400440E1
:10086000B0890443AC8201A8FFF7ECFD1F48874222
:1008700002D1DDF810A001E0DDF80CA0A88900F499
:10088000004040B10AEBCA0000EB0A103168490091
:10089000B0FBF1F807E00AEBCA0000EB0A10316880
:1008A0008900B0FBF1F86420B8FBF0F004012009E6
:1008B000642101FB1089A88900F4004040B1322076
:1008C00000EBC900B0FBF1F000F00700044308E0C2
:1008D000322000EB09106421B0FBF1F000F00F00B2
:1008E00004432C8106B0BDE8F087000000380140C9
:1008F00001468888C0F308007047C1F3080282806F
:10090000704700BFFEE770B504460D4629462046F5
:10091000FFF7F3FF00BF80212046FFF721FF0028EB
:10092000F9D070BD70B506460C46002500BF615D6C
:100930003046FFF7E8FF6D1C605D0028F7D100BF6F
:1009400040213046FFF70CFF0028F9D070BD0000B1
:10095000014A024900F013B8AD0900081400002054
:1009600002E008C8121F08C1002AFAD17047704778
:10097000002001E001C1121F002AFBD170472DE9C0
:10098000F04116460F460446002503E03946B047BD
:10099000641C6D1C20780028F8D12846BDE8F08141
:1009A000002100E0491C8142FCD3704770B5044629
:1009B0000D46E1B20548FFF7A0FF00BF80210348C4
:1009C000FFF7CEFE0028F9D0204670BD0038014068
:1009D000FFF792FC4FF4E130FFF77AFE10A11948BF
:1009E000FFF7A0FF1AE00820174908601748FFF733
:1009F000D7FF4FF40050164908611448FFF7D0FFA5
:100A000008201149091F08601048FFF7C9FF4FF47B
:100A100000500F4948610D48FFF7C2FFE3E70000AF
:100A200044726F6E65204D657263757279205553FF
:100A30004152542074657374696E67202E2E2E2ED9
:100A4000200A000000380140140C0140FFFF0F0095
:100A500000100140740A0008000000201800000087
:100A6000600900088C0A000818000020000400003B
:100A700070090008000000000102030401020304E1
:0C0A800006070809020406080000000038
:04000005080000ED02
:00000001FF
